:100000000C94F1170C9422180C9422180C942218BA
:100010000C9422180C9422180C9422180C94221878
:100020000C9422180C9422180C9422180C94221868
:100030000C94445C0C9422180C9422180C942218F2
:100040000C9422180C9422180C9422180C94221848
:100050000C9422180C9422180C9422180C94F04240
:100060000C9422180C94783E0C94AC3E0C942218FC
:100070000C9422180C9422180C9422180C94221818
:100080000C9422180C9422180C9422180C94221808
:100090000C94363F0C946A3F0C9422180C9422184E
:1000A0000C9422180C9422180C9422180C942218E8
:1000B0000C9422180C9422180C9422180C942218D8
:1000C0000C9422180C9422180C9422180C942218C8
:1000D0000C9422180C9422180C9422180C942218B8
:1000E0000C942218DE2BF12B042C172C2A2C3D2CDF
:1000F000502C632C3A4644461C4626463046BC46A5
:100100004E46584662466C46764680468A46944637
:10011000BC469E46A846B246695469546954B454D4
:10012000C054E65469546954B454C0544469616D70
:10013000657465723A20312E370000000000003EE1
:100140005B4F5B3E3E6B4F6B3E1C3E7C3E1C183C47
:100150007E3C181C577D571C1C5E7F5E1C00183CA3
:100160001800FFE7C3E7FF0018241800FFE7DBE7EC
:10017000FF30483A060E2629792926407F050507D3
:10018000407F05253F5A3CE73C5A7F3E1C1C08082F
:100190001C1C3E7F14227F22145F5F005F5F0609F4
:1001A0007F017F006689956A606060606094A2FF4D
:1001B000A29408047E040810207E201008082A1C3F
:1001C00008081C2A08081E101010100C1E0C1E0C0B
:1001D00030383E3830060E3E0E06000000000000AB
:1001E000005F00000007000700147F147F14242A1A
:1001F0007F2A1223130864623649562050000807EC
:100200000300001C2241000041221C002A1C7F1C0C
:100210002A08083E0808008070300008080808080E
:10022000000060600020100804023E5149453E0075
:10023000427F400072494949462141494D331814D3
:10024000127F1027454545393C4A49493141211122
:1002500009073649494936464949291E0000140014
:100260000000403400000008142241141414141437
:10027000004122140802015909063E415D594E7C95
:100280001211127C7F494949363E414141227F414A
:1002900041413E7F494949417F090909013E4141A8
:1002A00051737F0808087F00417F41002040413F93
:1002B000017F081422417F404040407F021C027FA2
:1002C0007F0408107F3E4141413E7F090909063EF7
:1002D0004151215E7F0919294626494949320301C6
:1002E0007F01033F4040403F1F2040201F3F4038D8
:1002F000403F631408146303047804036159494DB3
:1003000043007F4141410204081020004141417FE8
:10031000040201020440404040400003070800205E
:10032000545478407F28444438384444442838445E
:1003300044287F385454541800087E090218A4A495
:100340009C787F0804047800447D40002040403DB4
:10035000007F1028440000417F40007C047804782E
:100360007C080404783844444438FC1824241818C1
:10037000242418FC7C08040408485454542404041D
:100380003F44243C4040207C1C2040201C3C40300A
:10039000403C44281028444C9090907C4464544C39
:1003A0004400083641000000770000004136080094
:1003B00002010204023C2623263C1EA1A161123A3E
:1003C0004040207A3854545559215555794121548B
:1003D000547841215554784020545579400C1E5290
:1003E0007212395555555939545454593955545434
:1003F000580000457C410002457D420001457C409B
:10040000F0292429F0F0282528F07C5455450020B7
:1004100054547C547C0A097F493249494932324854
:10042000484832324A4848303A4141217A3A4240BB
:100430002078009DA0A07D39444444393D4040408F
:100440003D3C24FF2424487E4943662B2FFC2F2B60
:10045000FF0929F620C0887E090320545479410001
:1004600000447D413048484A32384040227A007A80
:100470000A0A727D0D19317D2629292F282629295E
:10048000292630484D402038080808080808080880
:10049000382F10C8ACBA2F102834FA00007B0000A7
:1004A00008142A142222142A1408AA005500AAAA01
:1004B00055AA55AA000000FF00101010FF001414E8
:1004C00014FF001010FF00FF1010F010F0141414AF
:1004D000FC001414F700FF0000FF00FF1414F404E4
:1004E000FC141417101F10101F101F1414141F00D9
:1004F000101010F0000000001F101010101F10103E
:100500001010F010000000FF10101010101010104C
:1005100010FF10000000FF140000FF00FF00001F8C
:1005200010170000FC04F414141710171414F4042A
:10053000F40000FF00F714141414141414F700F757
:10054000141414171410101F101F141414F4141082
:1005500010F010F000001F101F0000001F1400001A
:1005600000FC140000F010F01010FF10FF14141421
:10057000FF141010101F00000000F010FFFFFFFF1D
:10058000FFF0F0F0F0F0FFFFFF0000000000FFFFC1
:100590000F0F0F0F0F38444438447C2A2A3E147E34
:1005A00002020606027E027E026355494163384418
:1005B000443C04407E201E2006027E020299A5E7EC
:1005C000A5991C2A492A1C4C7201724C304A4D4D87
:1005D000303048784830BC625A463D3E494949006F
:1005E0007E0101017E2A2A2A2A2A44445F4444408B
:1005F000514A444040444A51400000FF0103E0801A
:10060000FF000008086B6B083612362436060F0907
:100610000F06000018180000001010003040FF0105
:1006200001001F01011E00191D1712003C3C3C3C3B
:100630000000000000060304090809090307070871
:10064000060306050708080808080808080808033C
:100650000306060608090808080808080808040828
:1006600008070A0808080808080808080A08080807
:100670000407040709040707070707060707040517
:1006800006040807080708060605070808060707FE
:10069000050305080600000000000000000000003F
:1006A000000000000000000040404040404040404A
:1006B00000400000000000A0A0A00000000000001A
:1006C0000000000000000000242424FF2424FF2454
:1006D00024240000000000003C4240407040704074
:1006E00040FE00000000000061919264081026495D
:1006F0008986000000000000205088885020528C1D
:100700008C730000000000404040800000000000AA
:100710000000000000000C1020404080808080809D
:10072000404020100C00C0201008080404040404F9
:1007300008081020C0000000001092543854921095
:1007400000000000000000000000002020F8202031
:100750000000000000000000000000000000000099
:10076000C0C04080000000000000000000F8000051
:100770000000000000000000000000000000000079
:10078000C0C0000000000004040808101020204031
:10079000408080000000000038444482828282440D
:1007A00044380000000000001030501010101010ED
:1007B000107C000000000000384482020418204031
:1007C00080FE000000000000788402043804020269
:1007D0008478000000000000040C14244484FE040B
:1007E0000404000000000000FC808080F804020285
:1007F00084780000000000003C408080B8C4828201
:1008000044380000000000007E02020404080810C2
:1008100010100000000000003844824438448282F6
:10082000443800000000000038448282463A020248
:100830000478000000000000000000C0C000C0C03C
:100840000000000000000000000000C0C000C0C0A8
:100850004080000000000000000810204080402080
:10086000100800000000000000000000F800F80080
:100870000000000000000000008040201008102050
:10088000408000000000000038448202040810107C
:1008900000100000000000003C4299A5A5A5A59EFF
:1008A000403E0000000000001010282844447C82D4
:1008B0008282000000000000F8848284F884828232
:1008C00084F80000000000003C428080808080802E
:1008D000423C000000000000F88482828282828212
:1008E00084F8000000000000FE808080FC80808092
:1008F00080FE000000000000FE808080F880808084
:1009000080800000000000003C428080809C828249
:10091000423C00000000000084848484FC848484C1
:100920008484000000000000E0404040404040401F
:1009300040E0000000000000020202020202028207
:100940004438000000000000848890A0C0A0908877
:100950008482000000000000808080808080808091
:1009600080FC000000000000000000C180C180A2E7
:1009700080A280948094808880888080808080009D
:100980000000000000000000C2C2A2A292928A8A67
:1009900086860000000000003844828282828282C3
:1009A0004438000000000000F88482828284F880CD
:1009B00080800000000000003844828282828282AF
:1009C0004438080600000000F884828284F8908889
:1009D000848200000000000038448280601C028293
:1009E0004438000000000000FE101010101010101D
:1009F00010100000000000008282828282828282C7
:100A0000443800000000000082828282444428288A
:100A10001010000000000000000000808080808036
:100A200080888088804900550055002200220000FF
:100A300000000000000000008282442810102844BA
:100A40008282000000000000828282442810101080
:100A50001010000000000000FE02040810102040EA
:100A600080FE0000000000E0808080808080808028
:100A70008080E000000000040408081010202040DE
:100A800040808000000000E0202020202020202046
:100A90002020E000000010284400000000000000BA
:100AA0000000000000000000000000000000000046
:100AB0000000000000000000000000000000000036
:100AC000000000FF00000000000000000000000027
:100AD0000000000000000000404040200000000036
:100AE0000000000000000000000000700804748C8A
:100AF0008C74000000000000008080B0C8848484F2
:100B0000C8B0000000000000000000384480808071
:100B10004438000000000000000404344C84848445
:100B20004C34000000000000000000384484F880CD
:100B300044380000000000003048404040E04040A1
:100B40004040000000000000000000304C8484841D
:100B50004C34040870000000808080B0C884848415
:100B600084840000000000000040004040404040FD
:100B70004040000000000000001000301010101075
:100B800010101090600000008080808890A0C0A0AD
:100B90009088000000000000C040404040404040BD
:100BA0004040000000000000000000ACD292929291
:100BB0009292000000000000000000B0C88484840D
:100BC000848400000000000000000038448282821B
:100BD0004438000000000000000000B0C884848495
:100BE000C8B0808080000000000000344C84848401
:100BF0004C34040406000000000000B0C88080806F
:100C000080800000000000000000007088807008F4
:100C10008870000000000000004040E0404040407C
:100C200040300000000000000000008484848484C0
:100C30004C340000000000000000008282828244E8
:100C400028100000000000000000008282829292C2
:100C5000AA440000000000000000008888502050D6
:100C600088880000000000000000008484848484E0
:100C70004C34040870000000000000FC0408304000
:100C800080FC000000001020202020202040202098
:100C90002020202010000040404040404040404084
:100CA00040404040000040202020202020102020F4
:100CB0002020202040000000324C000000000000F6
:100CC0000000000000000030484830000000000034
:100CD00000000000009506A506B506C506D506E588
:100CE00006F5060507150725073507450755076566
:100CF00007750785079507A507B507C507D507E554
:100D000007F507050815082508350845085508653D
:100D100008750885089508A508B508C508D508E52B
:100D200008F5080509150925093509450955096515
:100D30000985099509A509B509C509D509E509F583
:100D400009050A150A350A450A550A650A750A850C
:100D50000A950AB50AD50AE50AF50A050B150B2509
:100D60000B350B450B550B650B750B850B950BA5C3
:100D70000BB50BC50BD50BE50BF50B050C150C25B1
:100D80000C350C450C550C650C750C850C950CA59B
:100D90000CB50CC50C050808130E15110608080C37
:100DA0000A070807080E0E0E0E0E0E0E0E0E0E0788
:100DB000070E090E0D1910111212100F1312060D45
:100DC000110D151213101311100E120F170F101012
:100DD000090D090C0D090E0F0D0F0E080F0F060659
:100DE0000C06160F0F0F0F080C070E0C120D0D0C32
:100DF0000D0D0D0F017F010A81058105810581051A
:100E000081058105810581058105810581058105B2
:100E1000811581058105813A098001800380018067
:100E200003800180038001800380018003800180B2
:100E3000038001807F112E8101810C8002800D8052
:100E400002800C8101810C8002800D800280088D5F
:100E5000088002800D8002800D800280088D08804D
:100E600002800D8002800C8101810C8002800D8047
:100E700002800C8101817F0D1F8505890382038219
:100E8000028107810181078101810B820B810A8721
:100E900007810B810B810B810A810B860280018BFC
:100EA00001810483632D8207810586058006810206
:100EB0008104810581048102810681048102800709
:100EC0008104810181088102810280098601800CF0
:100ED00082028102820C80018609800281028108DF
:100EE00081018104810780028104810681028104DD
:100EF00081058104810281068005860581078207BC
:100F0000807F0C15840A860882028207810481078B
:100F100081048107810382088101820A840A830B8C
:100F200085038103820182028102820382018102A0
:100F3000810584038106830381078104820485037C
:100F400088018203850482760682028202820480FE
:100F500003810281740D810580058105800581056D
:100F60008105810481058105810581058105810552
:100F7000810581058105810681058105810680063F
:100F8000810680068107078106800681068006812A
:100F90000581058106810581058105810581058120
:100FA0000581058105810581048105810581058013
:100FB0000581058005810D10810981098106800167
:100FC00081018002890385068306810181048201F3
:100FD00082048003807F3653810781078104870163
:100FE00087048107810781677182038203820580FC
:100FF0000481048004811758850185687182038209
:101000000382320D810581058005810581058005FA
:1010100081058105800581058105800581058105A2
:1010200080058105810580058105812D2083078745
:101030000483018303810581028205820181078186
:101040000181078101810781018107810181078178
:101050000181078101810781018205820281058169
:1010600003830183048707836622810B810A820739
:101070008507850B810B810B810B810B810B810B0C
:10108000810B810B810B810B810B81661F8505898B
:101090000382038202820681018107810181078127
:1010A0000B810A82088307840684078308820982E9
:1010B0000A810B8B018B621F8506870482038203E2
:1010C000810581028205810B810A82078408850BD4
:1010D000820B8101810781018107810182058202E2
:1010E000820382038905856524810A820983098335
:1010F00008810081078101810681028106810281C8
:10110000058103810481048103810581038B018BA7
:1011100009810B810B810B81641D89038903810B7C
:10112000810B810B81008405890283038202810681
:10113000820B810B810B8101810781018205820273
:1011400082038203890585652084068803820481E1
:10115000038106810281068101810B810184048A59
:101160000283038202820582018107810181078156
:10117000018107810281058202820382048805853C
:10118000651C8B018B0A810A8209820A810A820A04
:10119000810A810B810A820A810B810B810A810BF2
:1011A000810B816920830787058103810481058183
:1011B00003810581038105810481038106850687FA
:1011C00004820382028107810181078101810781F5
:1011D000018107810282038203890585651F8505D8
:1011E00088048203820282058102810781018107CE
:1011F00081018107810182058202820383028A04C0
:101200008401810B810181068102810681038104B1
:101210008203880586652B820382038234820382DF
:101220000382322B8203820382348203820382058B
:1012300080048104800481176B82088207830782FF
:1012400008810D820D820C820C827F0C51860186F2
:10125000138601866362820C820C830C820D8108E6
:10126000820783078208827F151085048803820322
:10127000820182058101810681018106810982083E
:1012800082088208820981098209822382098209EF
:10129000825F21880D82068209820A8107810D8181
:1012A00005810F810480068301800381028104810E
:1012B000028303810281038104810481018104810D
:1012C00004810481018103810581048101810381FD
:1012D00005810481018103810481048102810381EC
:1012E00004810481028103810481038104810381DB
:1012F000028202810581048301840781178117819D
:101300000B81098205830D876C15830B830B830A80
:10131000810181098101810981018108810381079E
:10132000810381078103810681058105810581058E
:1013300089048B038107810381078102810981016F
:10134000810981008209826F128A058C03810782DC
:101350000381088103810881038108810381088159
:1013600003810782038A058C038107820381098137
:10137000028109810281098102810981028107823A
:10138000038C038A7A1786088A05830483038208FC
:101390008103810A8101820A8101810F810F810FFE
:1013A000810F810F810B8101820A810281098202F2
:1013B00082088104830483058A08867F02138907D3
:1013C0008B058106830481088203810981038109D9
:1013D0008202810A8102810A8102810A8102810AD4
:1013E0008102810A8102810A8102810982028109C6
:1013F000810381088203810683048B05897F0311A1
:101400008C028C02810D810D810D810D810D810D6C
:101410008B038B03810D810D810D810D810D810D5C
:101420008C028C70108B028B02810C810C810C81E0
:101430000C810C810C8A038A03810C810C810C8144
:101440000C810C810C810C81731886098A06820537
:1014500083048208810481098202820F8110811035
:101460008105870281058702810B8102810B810240
:10147000820A81038109820382078304830484052D
:10148000890081078503807F061381098103810913
:101490008103810981038109810381098103810914
:1014A0008103810981038D038D03810981038109F2
:1014B00081038109810381098103810981038109F4
:1014C000810381098103810981038109817F07816A
:1014D00003810381038103810381038103810381EC
:1014E00003810381038103810381038103810381DC
:1014F00003812B15810A810A810A810A810A810AE6
:10150000810A810A810A810A810A81018106810199
:101510008106810181068101820482028804865E3F
:10152000128108820281078203810682048105827A
:10153000058104820681038207810282088101827B
:10154000098100830987088301820782038206815B
:101550000581068105820581068204810782038157
:10156000088202810982760E810A810A810A810A33
:10157000810A810A810A810A810A810A810A810A13
:10158000810A810A810A810A8A018A5A16820A829C
:101590000383088303830883038308830381008113
:1015A0000681008103810081068100810381008121
:1015B0000681008103810181048101810381018110
:1015C0000481018103810181048101810381028100
:1015D00002810281038102810281028103810281F1
:1015E00002810281038103810081038103810381E0
:1015F00000810381038103840381038104820481C8
:101600000381048204817F1413820881038208818C
:10161000038307810384068103810081068103819E
:10162000008205810381018204810381028104819A
:101630000381028203810381038202810381048189
:10164000028103810482018103810582008103817B
:101650000681008103810684038107830381088258
:10166000038108827F1886098A068304830482081E
:101670008203810A8102820A8201810C8101810C2C
:101680008101810C8101810C8101810C8101810C1E
:101690008101820A8202810A810382088204830412
:1016A00083068A09867F0A118A048B0381078202D6
:1016B00081088102810881028108810281088102FA
:1016C000810782028B038A04810D810D810D810DBA
:1016D000810D810D810D817B1886098A0683048323
:1016E0000482088203810A8102820A8201810C81BC
:1016F00001810C8101810C8101810C8101810C81AE
:1017000001810C81018206800282028105820181B1
:101710000382058504830483068C0786018210807A
:1017200073128B048C038108820281098102810972
:1017300081028109810281098102810881038C0370
:101740008B04810782038108810381088202810959
:101750008102810981028109810281098102810955
:1017600081771485078904820582038107810381BB
:1017700007810381078202820D840B860B850C830F
:101780000D82018208810281088102810881028321
:101790000582038A0686730D9B05810B810B810BE5
:1017A000810B810B810B810B810B810B810B810BD9
:1017B000810B810B810B810B81671381098103816F
:1017C00009810381098103810981038109810381E1
:1017D00009810381098103810981038109810381D1
:1017E00009810381098103810981038109810381C1
:1017F00009810382078204820582068908877F02A5
:101800000E8208820081088101810881018108819E
:10181000028106810381068103810681048104819E
:10182000058104810581048106810281078102818D
:1018300007810281088100810981008109840A826F
:101840000B826E1682068206820081068206810164
:101850008106820681018204810081048202810462
:10186000810081048103810481008104810381045A
:10187000810081048103820281028102820481024B
:10188000810281028105810281028102810581023A
:10189000810281028105820081048100820681002B
:1018A000810481008107810081048100810781001A
:1018B00081048100810783068308820682098206EB
:1018C000827F250F810881018206820281068104C0
:1018D00081048105820282068102810881008109DA
:1018E000840A820B820A81008108820082078102B9
:1018F00081068104810482048203810681028206BA
:101900008200820882680F82098200820782028137
:101910000781038205820481058106810381078294
:101920000182088101810A830B830C810D810D8165
:101930000D810D810D810D810D8176118C028C0C34
:10194000820B820B820C810C810C820B820B820C2D
:10195000810C810C820B820B820B820C8D018D70AD
:101960000B8403840381068106810681068106813A
:10197000068106810681068106810681068106812F
:101980000681068106810681068106840384120190
:10199000800B800B810B800B800B810B800B800BED
:1019A000810B800B800B810B800B800B810B800BDC
:1019B000800B810B800B800B810B800B800B810BCC
:1019C000800E0984038406810681068106810681D2
:1019D00006810681068106810681068106810681CF
:1019E00006810681068106810681068103840384BF
:1019F0001410820781008105810281038104810125
:101A00008106817F6F7F7F1D8C260B83038501827A
:101A100001820081038100810381008201820185AE
:101A200003837F1A57850588048104820381058119
:101A30000B8105870389028205810281068102816B
:101A4000068102820383038600830284028261107E
:101A5000810C810C810C810C810C81018306810039
:101A60008604840183038205810381068202810743
:101A7000810281078102810781028106820282053B
:101A8000810384018303810086048101836D528375
:101A900006870383018203810581018209810A810E
:101AA0000A810A82058102810581028301820487FD
:101AB00006835E19810C810C810C810C81068301E7
:101AC00081048600810383018403810582028206EA
:101AD00081028107810281078102810781028206DA
:101AE00081038105820383018404860081068301CA
:101AF000816A5883078704830183038105810282F9
:101B00000681018B018B01810B820B81058202838F
:101B1000018304870783660A8302840281058105A5
:101B20008103860086028105810581058105810585
:101B300081058105810581058105813B5E830181E8
:101B40000486008103830184038105820281078169
:101B50000281078102810781028107810282068159
:101B60000381058203830184048600810683018149
:101B70000C8102810781028106820382038204892B
:101B800006851310810C810C810C810C810C810164
:101B90008405810086048303820382058103810614
:101BA0008103810681038106810381068103810609
:101BB00081038106810381068103810681038106F9
:101BC000816A0781038103810F810381038103817E
:101BD00003810381038103810381038103810381E5
:101BE00003812B0781038103810F8103810381031B
:101BF00081038103810381038103810381038103C5
:101C000081038103810381038103810183018208B0
:101C10001981098109810981098104820181038275
:101C2000028102820381018204810082058505868A
:101C30000482018104810282038103810381038282
:101C4000028104810281048253078103810381039D
:101C50008103810381038103810381038103810364
:101C6000810381038103810381038103812B7F052C
:101C70008101830383058100850086048302840239
:101C80008203820482048103810581058103810529
:101C9000810581038105810581038105810581031A
:101CA0008105810581038105810581038105810508
:101CB000810381058105810381058105817F1B5B8E
:101CC00081018405810086048303820382058103E8
:101CD00081068103810681038106810381068103D8
:101CE00081068103810681038106810381068103C8
:101CF0008106816A5E8407880483028303810681EA
:101D000002820682018108810181088101810881A6
:101D1000018206820281068103830283048807848C
:101D20006D5B810183068100860484018303820543
:101D30008103810682028107810281078102810776
:101D4000810281068202820581038401830381006E
:101D5000860481018306810C810C810C810C812811
:101D60005E830181048600810383018403810582EF
:101D70000282068102810781028107810281078137
:101D80000282068103810582038301840486008127
:101D9000068301810C810C810C810C810C811F3127
:101DA000810082018501820481058105810581050B
:101DB00081058105810581058105813B4A8405876F
:101DC000028203810281058101810A8407860784DA
:101DD0000981018105810182038202870485560FF2
:101DE00081048104810481028500850281048104CB
:101DF00081048104810481048104810481048303BA
:101E0000823155810681028106810281068102812B
:101E1000068102810681028106810281068102819A
:101E20000681028106810281058202820383038684
:101E3000008104840181624781068100810681015D
:101E40008104810281048102810481038102810471
:101E50008102810481028105810081068100810661
:101E60008407820882586B81048204810081048285
:101E7000048100810480008004810181028100814D
:101E8000028102810281008102810281028100813E
:101E9000028102810280028002810381008102812D
:101EA000008104810081028100810481008102811E
:101EB00000810582048206820482068204827F01F8
:101EC0004E810681018204820281048104810281A3
:101ED00005820082068408820884068200820581C9
:101EE00002810481048102820482018106815B4DAA
:101EF00082068200810681018106810281048103BC
:101F000081048103810481048102810581028105AC
:101F1000810281068100810781008107810081089B
:101F2000820982098209810982068407831448890B
:101F30000189088207820782078208810882078256
:101F40000782078208890189540683078209810A6A
:101F5000810A810A810A810A810A810A810A81092A
:101F60008108820B810B810A810A810A810A810A18
:101F7000810A810A810A810A820A830E04810A8108
:101F80000A810A810A810A810A810A810A810A81F9
:101F90000A810A810A810A810A810A810A810A81E9
:101FA0000A810A810A810A810A810A810A81120151
:101FB000830A820A810A810A810A810A810A810AC6
:101FC000810A810A810B810B82088109810A810AB9
:101FD000810A810A810A810A810A810A81098207AC
:101FE00083131183098101810781038203800080AB
:101FF00006810181008007837F7F2C19F50DF70D85
:10200000180E360E780EA50E030F480F550F860FCB
:10201000B70FD70FE80FF70FFC0F03102C10691044
:102020008C10B710E810191148118111A411DD119D
:102030001612231238124C125512691292120913F9
:1020400048138513BD13FF13241449148914CE14A7
:10205000F314201567158C1508166516A716D816E3
:10206000211762179717BA1700184318C3180619D3
:102070003B1960198F19C219F119051A0A1A241A85
:102080004F1A8E1AB31AF21A171B3C1B831BC21B62
:10209000E31B101C491C6E1CBF1CF41C211D601D81
:1020A0009F1DBC1DDF1D021E371E661EC01EEF1EBB
:1020B0002E1F491F7C1FAF1FE21FFB1F0C0C0C0CB7
:1020C0000C0C0C0C0C0C0C0C0C110F0C1B1B1B1B0C
:1020D0001B1B1B1B1B1B0F0C0C0C0C0C0C0C0C0CE3
:1020E0000C0C0C0C0C0C0C0C0C0C0C0C0C0C0C0C30
:1020F0000C0C0C0C0C0C0C0C0C0C0C0C0C1B0C0C11
:102100000C0C0C0C0C0C0C0C0C2A0C0C1D0C0C0CE0
:102110000C0C0C0C0C0C0C0C070C0C0C7F7F7F7F38
:102120003F7F7F458A058A058A058A7F7F7F2B7FCF
:102130007F7F558409840984098409847F38238733
:102140000F8D0B8F09910786058606840984068307
:102150000B8305840B8404830D8304830D83048324
:102160000D8303830F8302830F8302830F83028314
:102170000F8302830F8302830F8302830F83028303
:102180000F8302830F8302830F8302830F830283F3
:102190000F8302830F8302830F8303830D830483E2
:1021A0000D8304830D8304840B8405830B830684D1
:1021B0000984068605860791098F0B8D0F877F7F1F
:1021C0003229821782168316831584148512870D8F
:1021D0008C0D8C0D8700830D840383168316831664
:1021E0008316831683168316831683168316831627
:1021F0008316831683168316831683168316831617
:1022000083168316831683168316837F7F4C248759
:10221000108C0B8F09910885058606840984068435
:102220000A8306830B8404840C8304830D83048354
:102230000D8304830D8316831584158414841485FB
:10224000138512861187108810880F8810871186D1
:1022500012851385148414841583168315960396AA
:10226000039603967F7F4523870F8D0B9008910778
:102270008605860684098405840B8404840B840403
:10228000830D8304830D8304830D831584158414C7
:102290008414850D8B0E89108B0E8C148615841674
:1022A00084158402830F8302830F8302830F8302CA
:1022B000840D8402840C8503840B840485098505C0
:1022C0008605860791098F0B8D0F877F7F4D45838C
:1022D0001584148513861386128711830083118356
:1022E0000083108301830F8302830E8402830E8395
:1022F00003830D8304830C8305830B8405830B8385
:1023000006830A8307830984078309830883088374
:10231000098307830A83079702970297029711831D
:1023200016831683168316831683168316831683E5
:102330007F7F4A3A91089108910891088216831686
:10234000831683168217821782168302870B8300F7
:102350008B09910892078605860684098505830BFB
:1023600084168316841683168316831683168303B6
:10237000830E8303830D8403830D8304840B840500
:10238000840985058605860791098F0B8D0F877F48
:102390007F322486118B0C8E0A900886058506856F
:1023A000098405840B8305830C8403840D830383D4
:1023B0000E83038316831583168304860A83028B98
:1023C0000783008E069405880586048609840485A3
:1023D0000B8403840D8303840D8402830F830283A3
:1023E0000F8302830F8302830F8302830F83038390
:1023F0000D8403830D8304840B840584098505867D
:1024000005860791098F0C8C0F887F7F31379603E3
:1024100096039603961683158315831583158414E6
:1024200084148415831584148415841484158315E9
:1024300084158315841584158315841583168315D7
:1024400084158316831683168315841583168316C5
:10245000837F7F532485118B0C8F09910786058616
:102460000684098405840B8404840B8404830D830F
:1024700004830D8304830D8304840B8405830B8301
:102480000684098407850585098F0B8D0B8F0991BB
:102490000785078505840B8404830D8303840D84DD
:1024A00002830F8302830F8302830F8302830F83D0
:1024B00002830F8302840D8402840D8403840B84C1
:1024C0000486078605930791098F0D897F7F312246
:1024D000880F8C0C8F099107860586058509840570
:1024E000840B8404830D8303840D8303830F830291
:1024F000830F8302830F8302830F8302830F830280
:10250000840D8403830D8403840B8504840986046D
:102510008605880594068E0083078B02830A86044D
:102520008316831583168303830E8303830D84032D
:10253000840C8305830B840584098506850586083C
:10254000900A8E0C8B11867F7F337F1A8409840951
:1025500084098409847F3D84098409840984098469
:102560007F747F7B880F8D0A900991078506850609
:10257000840A8405830C8305830C8305830C8316EE
:102580008315840E8B09900792068D0183058807B9
:102590008305840B8304840C8304830D8304830DDF
:1025A0008304830C8404830B8504840986058406D4
:1025B0008A038F0184048D0284058A058307867F40
:1025C0007F357F7F7F058607860A830289048A0814
:1025D00083008C028C0783008D008E068705890599
:1025E0008406850886088405840A840A8305840A8B
:1025F000840A8305830B830B8305830B830B83057D
:10260000830B830B8305830B830B8305830B830B66
:102610008305830B830B8305830B830B8305830B5C
:10262000830B8305830B830B8305830B830B83054C
:10263000830B830B8305830B830B8305830B830B36
:102640008305830B830B8305830B830B8305830B2C
:10265000830B8305830B830B8305830B830B83051C
:10266000830B830B837F7F7F7A7F7F10860C8302AF
:102670008B0983018D0883008F07880586068609EC
:102680008406850B8405840D8305840D8305840DE4
:102690008404830F8304830F8304830F8304830FD5
:1026A0008304830F8304830F8304830F8304830FC6
:1026B0008304830E8404840D8305840C8405850BB8
:1026C0008405860984068805860683008F078301B2
:1026D0008D0883028B098304860C83188318831862
:1026E00083188318831883188318831883321C2156
:1026F0001C211C211C211C211C211C211C211C21F2
:102700001C211C211C211C2121212F211C213E21A7
:10271000C1210E226722CE22332392230D2454247A
:10272000CF244A251C211C211C211C211C211C21D9
:102730001C211C211C211C211C211C211C211C21B1
:102740001C211C211C211C211C211C211C211C21A1
:102750001C211C211C211C211C211C211C211C2191
:102760001C211C211C211C211C211C211C211C2181
:1027700062251C211C211C211C211C211C211C2127
:102780001C211C211C211C21C2251C211C21692665
:102790001C211C211C211C211C211C211C211C2151
:1027A0001C211C211C211C211C211C211C210C0C66
:1027B0000C0C0C0C0C0C0C0C0C0C0C0C0C0C202031
:1027C00020202020202020200C0C0C0C0C0C0C0CA9
:1027D0000C0C0C0C0C0C0C0C0C0C0C0C0C0C0C0C39
:1027E0000C0C0C0C0C0C0C0C0C0C0C0C0C0C0C0C29
:1027F0000C0C0C0C0C0C0C0C0C0C0C0C0C0C0C0C19
:102800000C0C0C0C0C0C0C0C0C0C0C0C0C0C7F7F22
:102810007F7F3F7F7F7F7B820784068406840782D9
:1028200010278E0F900D920D9001800881018E016E
:10283000820683108404850E8504850E8504850E2A
:102840008504850E8504850E8504850E8504850E18
:102850008504850E8504850E8504850E8504850E08
:102860008504850E8504850E8504841084048214F5
:10287000820480188024801E8215810484118304C0
:10288000850E8504850E8504850E8504850E8504D8
:10289000850E8504850E8504850E8504850E8504C8
:1028A000850E8504850E8504850E8504850E8504B8
:1028B000850E8504850E85058310830781018E01B1
:1028C000810B900D920D900F8E287F19801D821B19
:1028D0008419851985198519851985198519851909
:1028E00085198519851985198519851B831D811EF3
:1028F000805D811B831985198519851985198519AD
:1029000085198519851985198519851985198519D7
:10291000851A831C817F24278E0F900D920D9001C4
:10292000800C8E01821B84198519851985198519DA
:1029300085198519851985198519851985198519A7
:10294000851A840A8E028208920280069606800109
:10295000940782019009841A8519851985198519AA
:102960008519851985198519851985198519851977
:102970008519851A831C81018E0F900D920D900F81
:102980008E28278E0F900D920D9001800C8E018263
:102990001B84198519851985198519851985198546
:1029A0001985198519851985198519851A840A8E3D
:1029B000028208920280069609940C9002811B8381
:1029C0001985198519851985198519851985198517
:1029D0001985198519851985198519851A830B8E0D
:1029E00001810B900D920D900F8E287F1980088128
:1029F00012820683108404850E8504850E85048565
:102A00000E8504850E8504850E8504850E85048556
:102A10000E8504850E8504850E8504850E85048546
:102A20000E8504850E8504850E8504841084048239
:102A3000028E0282048002920280069609940C9013
:102A400002811B83198519851985198519851985B1
:102A50001985198519851985198519851985198586
:102A60001A831C817F24278E0F900D920D900B816D
:102A7000018E0B831A851985198519851985198584
:102A80001985198519851985198519851985198457
:102A90001A82028E0A8002920A9609940C90028190
:102AA0001B83198519851985198519851985198536
:102AB00019851985198519851985198519851A8327
:102AC0000B8E01810B900D920D900F8E28278E0F8B
:102AD000900D920D900B81018E0B831A851985192B
:102AE00085198519851985198519851985198519F6
:102AF000851985198519841A82028E0A8002920A24
:102B00009606800194078201900281048411830457
:102B1000850E8504850E8504850E8504850E850445
:102B2000850E8504850E8504850E8504850E850435
:102B3000850E8504850E8504850E8504850E850425
:102B4000850E8504850E85058310830781018E011E
:102B5000810B900D920D900F8E28278E0F900D9265
:102B60000D9001800C8E01821B84198519851985B1
:102B70001985198519851985198519851985198565
:102B8000198519851A841C821E805D811B83198515
:102B90001985198519851985198519851985198545
:102BA000198519851985198519851A831C817F2432
:102BB000278E0F900D920D9001800881018E018269
:102BC0000683108404850E8504850E8504850E8594
:102BD00004850E8504850E8504850E8504850E8585
:102BE00004850E8504850E8504850E8504850E8575
:102BF00004850E8504850E85048410840482028E6B
:102C00000282048002920280069606800194078266
:102C1000019002810484118304850E8504850E854C
:102C200004850E8504850E8504850E8504850E8534
:102C300004850E8504850E8504850E8504850E8524
:102C400004850E8504850E8504850E8504850E8514
:102C5000058310830781018E01810B900D920D90E9
:102C60000F8E28278E0F900D920D90018008810104
:102C70008E01820683108404850E8504850E8504EA
:102C8000850E8504850E8504850E8504850E8504D4
:102C9000850E8504850E8504850E8504850E8504C4
:102CA000850E8504850E8504850E850484108404B4
:102CB00082028E0282048002920280069609940C9F
:102CC0009002811B83198519851985198519851924
:102CD0008519851985198519851985198519851904
:102CE000851A830B8E01810B900D920D900F8E280B
:102CF0007F1F8207840684068407827F18820784E8
:102D00000684068407827F200E280E280E280E28AF
:102D10000E280E280E280E280E280E280E280E2803
:102D20000E280E2813280E282128CA2817298229A0
:102D3000EB29662ACD2A5A2BB02B632CF02C0E28B7
:102D40000E280E280E280E280E280E280E280E28D3
:102D50000E280E280E280E280E280E280E280E28C3
:102D60000E280E280E280E280E280E280E280E28B3
:102D70000E280E280E280E280E280E280E280E28A3
:102D80000E280E280E280E280E280E280E280E2893
:102D90000E280E280E280E280E280E280E280E2883
:102DA0000E280E280E280E280E280E280E280E2873
:102DB0000E280E280E280E280E280E280E280E2863
:102DC0000E280E280E280E2800000000000000002B
:102DD0000008D50C3506100000000000FC1F950D02
:102DE0001A0000000000EE26BC2030082DAE27306F
:102DF000000000000015EF03038002CF0300C13084
:102E0000ED0464031281E803850078CB05392C00BA
:102E10003402F70120EA020000C00123C10110C5FD
:102E2000023E28C701863601483A0155B102001812
:102E3000B603088227F20100260101E00F0F312BB3
:102E40000C0E084EF1370710030E0900E10F000EBB
:102E50001403110731C148080F0C31360F11807867
:102E6000290000002100240027002A002D00300046
:102E7000330001010000040107010A0100002200E3
:102E8000250028002B002E00310034000201000034
:102E9000050108010B010000200023002600290085
:102EA0002C002F003200000100000301060109017F
:102EB00005050505070508080808020202020A0AB6
:102EC00008080404040401010101010101010303D4
:102ED000030303030303040707070C0C0C0C0C0C7F
:102EE0000C0C0202020206060606060606060B0B7C
:102EF0000B0B0B0B0B0B01021020200808102040BD
:102F000010204080020102010804020101020408AD
:102F1000102040808040201008040201800402013B
:102F20008040201008040201080402010102040884
:102F300010204080010204081020408000000A0B8D
:102F400002090C0D0E080703040100000000000038
:102F50000000000000000000000000000000000071
:102F6000000000000000000012111000000000002E
:102F70000000000000000000000000000000000051
:102F80000000CF93DF931F921F92CDB7DEB79A83D5
:102F900089830E94385080911505823010F00E947C
:102FA000595B0E94EE55F5CFCF93DF9300D01F926F
:102FB0001F92CDB7DEB79D838C83CE0103960E940E
:102FC0005B539A8389832B8189819A81622F0E9426
:102FD0000A530E942954F1CFEF18ED1F2A3FE83F12
:102FE000F91F11241FBECFEFD1E2DEBFCDBF00E03D
:102FF0000CBF13E0A0E0B2E0E0E6F0ED00E00BBFB4
:1030000002C007900D92A031B107D9F725E0A0E1E9
:10301000B3E001C01D92AA39B207E1F717E1C0EF92
:10302000D7E100E006C021970109802FFE010E9430
:103030006C61CC3ED10780E00807A9F70E94F43FFD
:103040000C941F680C940000CF93DF931F921F9283
:10305000CDB7DEB79A8389838091120390911303D1
:10306000892B31F489819A81909313038093120301
:1030700000000F900F90DF91CF910895CF93DF93D1
:103080001F921F92CDB7DEB79A83898386E193E0C2
:103090000E947D2460E070E086E193E00E94662556
:1030A00063E086E193E00E94B02B00000F900F9048
:1030B000DF91CF910895CF93DF931F921F92CDB7E9
:1030C000DEB79A83898389819A81FC018081882374
:1030D00019F089819A8106D000000F900F90DF913E
:1030E000CF910895CF93DF931F921F92CDB7DEB794
:1030F0009A83898340E050E060EE77E086E193E0D8
:103100000E94DA2563E086E193E00E94BC2540E05E
:1031100050E060E070E086E193E00E9498258CE248
:1031200091E0BC0186E193E00E948340809114030A
:10313000909115030A972CF4809114039091150334
:1031400002C080E090E09093150380931403809177
:103150001403909115039C012F5F3F4F309315038B
:10316000209314034AE050E0BC0186E193E00E9402
:103170002F4200000F900F90DF91CF910895CF93D1
:10318000DF931F921F92CDB7DEB79A838983000029
:103190000F900F90DF91CF910895CF93DF9300D0E0
:1031A0001F92CDB7DEB79A8389837C836B83898135
:1031B0009A81019761F48B819C81019641F440E4EE
:1031C00051E060EF70E086E193E00E941E23000072
:1031D0000F900F900F900F90DF91CF910895CF93A4
:1031E000DF93CDB7DEB76FEF7FEF81E090E0D5DF03
:1031F000DF91CF910895CF93DF9300D000D0CDB76A
:10320000DEB79A8389834B835C836D837E838B8156
:103210009C81AD81BE81E981FA8126E0AC01BD01CE
:10322000CF010E94DA3A000026960FB6F894DEBF6E
:103230000FBECDBFDF91CF910895CF93DF931F9243
:103240001F92CDB7DEB79A83898389819A81FC0169
:10325000108289819A81FC01118289819A812BE2F5
:1032600030E0FC013383228389819A812AE230E0B5
:10327000FC013583248389819A8129E230E0FC01B5
:103280003783268389819A81FC011186108680917B
:103290003B0390913C03892B31F489819A8190936F
:1032A0003C0380933B0300000F900F90DF91CF9180
:1032B0000895CF93DF931F921F92CDB7DEB79A8305
:1032C000898389819A81FC018281938161E00E94D6
:1032D000334589819A81FC018481958161E00E9456
:1032E000334589819A81FC018681978161E00E9442
:1032F000334540E052EC61E070E08CE694E07BDF27
:1033000042E350E060E070E08CE694E00E94CF423F
:1033100000000F900F90DF91CF910895CF93DF932E
:10332000CDB7DEB7C856D1090FB6F894DEBF0FBED1
:10333000CDBF9E012B593F4FF90191838083CE0170
:1033400089599F4FFC0171836083CE0189599F4F3A
:10335000FC0120813181CE018B599F4FFC0180817E
:103360009181B9011DD0CE0189599F4FFC01808107
:1033700091819E012F5F3F4FB90174D3CE01019619
:10338000BC018CE694E00E9408420000C859DF4F5F
:103390000FB6F894DEBF0FBECDBFDF91CF91089579
:1033A000CF93DF9300D01F92CDB7DEB79A83898386
:1033B0007C836B838B819C81FC01808191819C014A
:1033C00089819A81FC013187208789819A81FC015A
:1033D00080859185181619063CF489819A81FC0133
:1033E0008085918509973CF089819A8121E030E0C0
:1033F000FC013187208789819A81FC018085918534
:103400009C012150310989819A81FC0131872087F3
:1034100089819A81FC0180859185282F217089817D
:103420009A81FC0182819381622F0E94C146898129
:103430009A81FC018085918595958795282F21702B
:1034400089819A81FC0184819581622F0E94C14605
:1034500089819A81FC0180859185959587959595BF
:103460008795282F217089819A81FC018681978117
:10347000622F0E94C14662E070E080E090E00E940E
:10348000ED4300000F900F900F900F90DF91CF91C0
:103490000895CF93DF931F921F92CDB7DEB79A8323
:1034A000898300000F900F90DF91CF910895CF9303
:1034B000DF931F921F92CDB7DEB79A83898380E096
:1034C00090E00F900F90DF91CF910895CF93DF930D
:1034D0001F921F92CDB7DEB79A83898300000F90A9
:1034E0000F90DF91CF910895CF93DF9300D01F927B
:1034F000CDB7DEB79A8389837C836B8328E033E082
:1035000089819A81FC01318320838B819C81FC011C
:103510002281338189819A81FC01338322830000D7
:103520000F900F900F900F90DF91CF910895CF9350
:10353000DF9300D01F92CDB7DEB79A8389837C8357
:103540006B832B813C8189819A81B901CDDF28ED84
:1035500032E089819A81FC01318320838B819C81B7
:10356000FC0184819581A681B78129813A81F90185
:1035700084839583A683B7838B819C81FC0180859E
:103580009185A285B38529813A81F9018087918748
:10359000A287B38700000F900F900F900F90DF91DC
:1035A000CF910895CF93DF9300D01F92CDB7DEB7B0
:1035B0009A8389837C836B832B813C8189819A8167
:1035C000B901B5DF26EF32E089819A81FC013183B0
:1035D00020838B819C81FC012485358589819A819A
:1035E000FC01358724878B819C81FC0126853785EA
:1035F00089819A81FC01378726878B819C81FC0118
:103600002089318989819A81FC01318B208B8B81C2
:103610009C81FC012289338989819A81FC01338B49
:10362000228B8B819C81FC012489358989819A8137
:10363000FC01358B248B8B819C81FC012689378989
:1036400089819A81FC01378B268B8B819C81FC01BF
:10365000208D89819A81FC01208F8B819C81FC01C6
:10366000218D89819A81FC01218F8B819C81FC01B4
:10367000228D89819A81FC01228F8B819C81FC01A2
:10368000238D89819A81FC01238F8B819C81FC0190
:10369000248D89819A81FC01248F89819A812B81D3
:1036A0003C8140E4F9017D96DC015D9601900D922C
:1036B0004A95E1F789819A819C01235A3F4F8B817A
:1036C0009C81835A9F4F40E4FC01D90101900D92E7
:1036D0004A95E1F700000F900F900F900F90DF9147
:1036E000CF910895CF93DF93CDB7DEB7C25AD109FA
:1036F0000FB6F894DEBF0FBECDBF9E012F553F4FD2
:10370000F90191838083CE018F559F4FFC01208169
:103710003181CE010496B90145DF8DE08A8319829B
:10372000CE018F559F4FFC0180819181FC018081EA
:1037300091810896FC0120813181CE018F559F4FE8
:10374000FC0180819181F9011995181619063CF444
:10375000998181E08927882311F081E001C080E010
:10376000882309F43EC0CE018F559F4FFC01808114
:103770009181FC01808191810A96FC012081318137
:10378000CE018F559F4FFC0180819181F9011995E0
:103790008B839B818A819817B9F080915D03882F74
:1037A00090E0835C9C4F2B81FC01208380915D0322
:1037B0008F5F80935D0380915D03803208F4B0CF0A
:1037C0008FE180935D03ACCF80915D03882F90E003
:1037D000835C9C4FFC01108210925D0381E0898321
:1037E0009FCFCE018F559F4FFC0180819181FC01BD
:1037F000808191810896FC0120813181CE018F5515
:103800009F4FFC0180819181F901199521E01816E3
:1038100019060CF020E02223B1F0CE018F559F4F06
:10382000FC0180819181FC01808191810A96FC01DB
:1038300020813181CE018F559F4FFC018081918184
:10384000F9011995CECF8DE393E0CE55DF4F0FB63A
:10385000F894DEBF0FBECDBFDF91CF9108952F92B8
:103860003F924F925F926F927F928F929F92AF9210
:10387000BF92CF92DF92EF92FF920F931F93CF935D
:10388000DF93CDB7DEB7A8970FB6F894DEBF0FBEB3
:10389000CDBF98A78FA38BE390E09A8B898B9E0175
:1038A0002F5E3F4F8FA198A5B9010E945F649A8354
:1038B00089831C821B8224E1CE014396FC01322FB6
:1038C00011923A95E9F789819A81892B11F18B81BF
:1038D0009C810B9778F48B819C81880F991F9E01A6
:1038E0002F5F3F4F820F931F429629813A81FC013F
:1038F00031832083CE014196BC0180E090E00E949C
:103900005F649A8389838B819C8101969C838B83DE
:10391000DACF8B899C890E9442648C018AE092E014
:10392000E0D0A801BC018AE092E061D0982F81E04C
:103930008927882351F086E0FE013B96DE0115962B
:1039400001900D928A95E1F717C08B899C890E949E
:1039500042649C878B878D899E899E878D878F89FE
:10396000988D988B8F8786E0FE013B96DE01159639
:1039700001900D928A95E1F750E05D8140E04E8123
:1039800030E03F8120E0288590E0998580E08A85BD
:10399000252E342E432E522E692E782EA22CB32C97
:1039A000C42CD52CE62CF72C082D192D2A2D3B2DB7
:1039B0004C2D5D2D6E2D7F2D802F912FA8960FB64B
:1039C000F894DEBF0FBECDBFDF91CF911F910F9155
:1039D000FF90EF90DF90CF90BF90AF909F908F902F
:1039E0007F906F905F904F903F902F900895CF936E
:1039F000DF93CDB7DEB728970FB6F894DEBF0FBEC2
:103A0000CDBF9C838B837E836D8358874F831A82BF
:103A1000198229813A818D819E8128173907C0F446
:103A200089819A81880F991F2B813C81820F931F76
:103A3000FC01208131818F8198852817390711F485
:103A400081E007C089819A8101969A838983E1CFB9
:103A500080E028960FB6F894DEBF0FBECDBFDF9191
:103A6000CF910895CF93DF9300D01F92CDB7DEB7EB
:103A70009A8389837C836B8389819A81FC01448149
:103A8000558189819A81FC012281338189819A81C2
:103A9000FC0180819181652F6F934F93432F4F934A
:103AA0002F93292F2F938F9385E192E0892F8F9366
:103AB00085E192E08F938C818F938B818F930E940D
:103AC0002E658DB79EB70A960FB6F894DEBF0FBE6F
:103AD000CDBF00000F900F900F900F90DF91CF910E
:103AE0000895CF93DF931F921F92CDB7DEB79A83CD
:103AF000898385E090E00F900F90DF91CF9108953A
:103B0000EF92FF920F93CF93DF93CDB7DEB740E0F4
:103B100052EC61E070E08FEC93E06DDB85E693E0C2
:103B200005D38EE793E0C5DB8CEC93E0A7DA8091B8
:103B3000140280935E03E12CF12C02E020E030E0DF
:103B400044EF51E06EE172E08BEE9DE10E94514A3C
:103B5000E12CF12C02E020E030E044EF51E067E29C
:103B600072E08BEF9DE10E94514AE12CF12C02E0C2
:103B700020E030E044EF51E06BE372E086E19EE14B
:103B80000E94514AE12CF12C02E020E030E044EFA9
:103B900051E065E472E088E09EE10E94514AE12C28
:103BA000F12C02E020E030E044EF51E069E572E002
:103BB0008AE29EE10E94514A0000DF91CF910F916D
:103BC000FF90EF900895CF93DF93CDB7DEB700005D
:103BD000DF91CF910895CF93DF931F921F92CDB7BE
:103BE000DEB79A83898385E693E0CED28EE390E0B8
:103BF0000E94174CF8CFCF93DF931F921F92CDB73F
:103C0000DEB79A83898386E090E00E94174CFBCF51
:103C1000CF93DF931F921F92CDB7DEB79A8389832C
:103C200030D086E090E00E94174CFACFCF93DF931C
:103C300000D0CDB7DEB79B838A8380915E038093EB
:103C4000CC038CEC93E037DA80E090E00E94975050
:103C50008983F3CFCF93DF931F921F92CDB7DEB747
:103C60009A8389839091650380915E03981721F070
:103C700080915E038093650383E090E00E94174C7F
:103C8000F1CFAF92BF92CF92DF92EF92FF920F935C
:103C90001F93CF93DF9300D01F92CDB7DEB78FEC89
:103CA00093E00E949B3B21E0181619060CF020E0DF
:103CB000222309F488C08FEC93E014DD9A83898372
:103CC00089819A81CCDDA22EB32EC42ED52EE62E6C
:103CD000F72E082F192F2A2D3B2D4C2D5D2D6E2DE3
:103CE0007F2D802F912F20935F03309360034093AB
:103CF00061035093620360936303709364032091A4
:103D00005F033091600384E690E02817390729F4B7
:103D100080916103909162036AD020915F0330919A
:103D2000600381E090E02817390729F4809161034E
:103D30009091620383D080915F039091600320E0B3
:103D400030E02817390770F420915F033091600349
:103D500084E690E02817390728F46FE573E08EE7D2
:103D600093E0DCDA90915E0381E08927882359F1A2
:103D70008FEC93E0B7DC9C838B838B819C810E94CA
:103D80008264029700F180915F03909160034AE0A2
:103D900050E0BC018FEC93E00E94264167E672E0A0
:103DA0008FEC93E00E94D140809161039091620377
:103DB000BC018FEC93E00E94D14067E672E08FEC8B
:103DC00093E00E9408428CE694E00E949B3B000036
:103DD0000F900F900F900F90DF91CF911F910F9147
:103DE000FF90EF90DF90CF90BF90AF900895CF936A
:103DF000DF931F921F92CDB7DEB79A83898380919C
:103E000061039091620369E672E00E947264892BFB
:103E100071F480916303909164036CE772E00E94F7
:103E2000726421E0892B09F020E020935E0380E09A
:103E300090E00F900F90DF91CF910895CF93DF9393
:103E40001F921F92CDB7DEB79A83898380915E035C
:103E5000882351F089819A81BC0181E892E051D098
:103E6000882349F00FD007C089819A81BC018FEC6B
:103E700093E00E94084280E090E00F900F90DF9165
:103E8000CF910895CF93DF9300D01F92CDB7DEB7C7
:103E90002FE030E040E050E06AE070E080E090E049
:103EA0000E94DF47DC01CB0189839A83AB83BC830B
:103EB00081E090E04AE050E0BC018FEC93E00E948A
:103EC000264168E872E08FEC93E00E94D14089813E
:103ED0009A81AB81BC812AE030E0AC01BD018FEC5E
:103EE00093E00E94484167E672E08FEC93E00E9405
:103EF000084200000F900F900F900F90DF91CF912C
:103F00000895CF93DF93CDB7DEB728970FB6F89417
:103F1000DEBF0FBECDBF9E838D8378876F838D817B
:103F20009E810E9482649A8389838F8198850E94F2
:103F300082649C838B832B813C8189819A812817A1
:103F4000390768F049815A812F8138858D819E819A
:103F5000B9010E948B64892B11F481E001C080E0DB
:103F600028960FB6F894DEBF0FBECDBFDF91CF917C
:103F70000895CF93DF9300D01F92CDB7DEB79A8319
:103F800089837C836B8389819A81019769F48B8112
:103F90009C81019649F485E693E075D08EE793E025
:103FA0004CD98CEC93E050D889819A81892B69F4A3
:103FB0008B819C81019649F48CEC93E0E0D88EE7EC
:103FC00093E067DA85E693E0A0D200000F900F90AF
:103FD0000F900F90DF91CF910895CF93DF93CDB7DE
:103FE000DEB76FEF7FEF81E090E0C3DFDF91CF912D
:103FF0000895CF93DF93CDB7DEB76FEF7FEF80E00B
:1040000090E0B7DFDF91CF910895CF93DF931F92B8
:104010001F92CDB7DEB79A83898389819A81FC018B
:10402000848195810F900F90DF91CF910895CF9368
:10403000DF9300D01F92CDB7DEB79A8389837C834C
:104040006B832B813C8189819A81B9010E94F3495C
:1040500089819A810F900F900F900F90DF91CF91EF
:104060000895CF93DF931F921F92CDB7DEB79A8347
:10407000898389819A81FC01808191810F900F90C1
:10408000DF91CF910895CF93DF931F921F92CDB709
:10409000DEB79A83898389819A81FC0110828981A4
:1040A0009A8125E030E0FC013283218389819A8165
:1040B00022E030E0FC013483238389819A8123E06C
:1040C00030E0FC013683258329813A8182E390E048
:1040D000A0E0B0E0F90187839087A187B28789814A
:1040E0009A81FC01138614861586168689819A8129
:1040F000FC011786108A118A128A89819A81439657
:1041000063E972E00E943B488091CD039091CE0319
:10411000892B31F489819A819093CE038093CD03CA
:1041200000000F900F90DF91CF910895CF93DF9310
:104130001F921F92CDB7DEB79A83898389819A81B6
:10414000FC018181928161E00E94334589819A81DD
:10415000FC018581968162E00E94334589819A81C4
:10416000FC018381948162E00E94334589819A81B8
:10417000FC018181928161E00E94C14600000F90A4
:104180000F90DF91CF910895EF92FF920F931F93BD
:10419000CF93DF93CDB7DEB7C757D1090FB6F894E9
:1041A000DEBF0FBECDBF9E012A583F4FF90191835C
:1041B00080830E946343DC01CB019E012A583F4F5C
:1041C000F90120813181F90183879487A587B6871A
:1041D00085E090E09A838983CE018A589F4FFC0145
:1041E00080819181FC012385348545855685CE01EA
:1041F0008A589F4FFC0180819181FC01E784F088FF
:1042000001891289CE018A589F4FFC0180819181DA
:10421000FC0187819085A185B2858E0D9F1DA01F11
:10422000B11F281739074A075B0708F4EEC0CE0113
:104230008A589F4FFC0180819181FC0180818823F5
:1042400041F0CE018A589F4FFC0180819181EBD0D3
:10425000DCC0CE018A589F4FFC0180819181FC0116
:104260008181928161E00E94C1461B861A861C8270
:104270001B821E821D828D819E81C4970CF043C0DB
:10428000CE018A589F4FFC0180819181FC0185817C
:1042900096810E9449479B878A872A853B858B8127
:1042A0009C8128173907F9F08A859B85892B01F5B0
:1042B000CE018A589F4FFC0180819181FC0183814E
:1042C00094810E9449479C01CE018A589F4FFC016E
:1042D000808191814396B901AADE8D819E810196EC
:1042E0009E838D8305C089819A8101979A838983F2
:1042F00089819A81181619060CF086C08A859B85DB
:104300009C838B83B8CF1F8219861886CE018A586A
:104310009F4FFC0180819181439677DE9C0141E0B3
:10432000888599858217930708F040E04423E9F0D7
:10433000CE018A589F4FFC01808191814396288548
:104340003985B9010E94214AFC01908181E09033B6
:1043500009F080E0882319F081E08F8306C088850A
:104360009985019699878887D1CF8F818823F1F02D
:104370001D861C86CE018A589F4FFC018081918149
:1043800043966FDE9C018E859F85B9010E947B64F8
:104390009E012E5E3F4FCE010C96B90163DBCE012C
:1043A0004296BC018FEC93E00E940842CE018A58ED
:1043B0009F4FFC0180819181439663E972E00E94E6
:1043C0007549CE018A589F4FFC0180819181FC0183
:1043D0008181928160E00E94C146CE018A589F4F40
:1043E000FC0180819181FC0183859485A585B6853A
:1043F0009E012A583F4FF90120813181F9018787B9
:10440000908BA18BB28B01C00000C958DF4F0FB653
:10441000F894DEBF0FBECDBFDF91CF911F910F91FA
:10442000FF90EF900895EF92FF920F931F93CF9319
:10443000DF93CDB7DEB72B970FB6F894DEBF0FBE74
:10444000CDBF9B878A8720E536E440E050E068E6F0
:1044500072E480E090E00E94DF477B018C01CE0196
:1044600005962AE030E0AC01C801B7010E94D4648F
:1044700064E972E08FEC93E00E94D1401A821982C5
:1044800089819A81059764F51C821B828B819C81AE
:10449000049704F59E012B5F3F4F89819A81820F1B
:1044A000931FFC018081882F90E00B8002C09595BE
:1044B00087950A94E2F7817099274AE050E0BC01A1
:1044C0008FEC93E00E9403418B819C8101969C8339
:1044D0008B83DCCF89819A8101969A838983D0CF9F
:1044E0006FEA72E08FEC93E00E94084280E090E077
:1044F0002B960FB6F894DEBF0FBECDBFDF91CF91E4
:104500001F910F91FF90EF900895CF93DF931F922B
:104510001F92CDB7DEB79A83898389819A814396AA
:104520000E945F4800000F900F90DF91CF91089597
:10453000CF93DF931F921F92CDB7DEB79A83898303
:1045400028E033E089819A81FC01318320838981CD
:104550009A81FC011382128200000F900F90DF916C
:10456000CF910895CF93DF93CDB7DEB78BE091E085
:10457000DF91CF910895CF93DF931F92CDB7DEB730
:1045800089838981882351F48CE490E02CE430E025
:10459000F90120812062FC01208309C08CE490E0B5
:1045A0002CE430E0F90120812F7DFC012083000004
:1045B0000F90DF91CF910895CF93DF931F92CDB7E6
:1045C000DEB789838CE490E02CE430E0F9012081AF
:1045D000322F337F2981232BFC01208300000F9091
:1045E000DF91CF910895CF93DF931F92CDB7DEB7C0
:1045F00089838CE490E02CE430E0F9012081322FB3
:104600003C7F29812370232BFC0120838DE490E0E3
:104610002DE430E0F9012081422F4E7F2981222FA5
:1046200030E035952795359527952170242BFC0191
:10463000208300000F90DF91CF910895CF93DF93F7
:1046400000D000D0CDB7DEB79A8389837C836B839B
:104650005E834D8389819A816BDF2AEE32E0898106
:104660009A81FC013183208360E08CE20E94C14684
:1046700061E08CE20E94334575DFFC0120812260FD
:10468000FC01208361E080E30E9433456BDFFC0185
:1046900020812460FC01208361E08FE20E94334589
:1046A0002B813C8189819A81FC01338B228B2D8166
:1046B0003E8189819A81FC01358B248B89819A8185
:1046C000FC0113A289819A81FC01118610868981DF
:1046D0009A81FC012085318589819A81FC0133878B
:1046E000228789819A8121E0FC0120A389819A8116
:1046F00021E0FC0121A389819A812FEF3FEFFC018A
:10470000378B268B89819A81FC01118E108E8981CD
:104710009A81FC01118A108A89819A8121E0FC0129
:1047200024A389819A81FC0112A289819A81FC01CA
:10473000138E128E89819A812FEF3FEFFC01358F06
:10474000248F89819A812FEF3FEFFC01378F268FCD
:1047500089819A812FEF3FEFFC013587248789817A
:104760009A812FEF3FEFFC013787268789819A8155
:1047700022E030E0FC01338F228F89819A81FC0195
:10478000828D938D9C01246089819A81FC01338FF5
:10479000228F89819A81FC01828D938D9C012061F9
:1047A00089819A81FC01338F228F89819A81FC0152
:1047B000828D938D9C01206489819A81FC01338FC5
:1047C000228F89819A81FC01828D938D9C012068C2
:1047D00089819A81FC01338F228F000026960FB6C3
:1047E000F894DEBF0FBECDBFDF91CF910895CF9378
:1047F000DF9300D01F92CDB7DEB79B838A836C8393
:104800008CE490E0FC01808189838CE490E02A8133
:104810003B81F9012681FC0120838EE490E02C810C
:10482000FC01208300008DE490E0FC0180818095F4
:10483000881F8827881F882309F0F5CF8CE490E033
:104840002981FC01208300000F900F900F900F90A2
:10485000DF91CF910895CF93DF9300D0CDB7DEB72E
:104860009A8389836B838DE490E0FC0120818981A8
:104870009A81FC01278376DEFC0120812D7FFC01DB
:10488000208370DEFC0120812B7FFC012083898145
:104890009A816B81ACDF66DEFC0120812460FC0123
:1048A000208300000F900F900F90DF91CF9108951B
:1048B000CF93DF9300D0CDB7DEB79A8389836B8324
:1048C00051DEFC0120812260FC0120834BDEFC01D3
:1048D00020812B7FFC01208389819A816B8187DF76
:1048E00041DEFC0120812460FC01208300000F9048
:1048F0000F900F90DF91CF910895CF93DF931F9288
:104900001F92CDB7DEB79A8389830E9430578CE41B
:1049100090E0FC01208189819A81FC01278384E059
:1049200062DE81E028DE80E047DE8CE490E0FC017E
:10493000208189819A81FC01268361E08CE20E94BA
:10494000C14665E070E080E090E00E94ED4360E0E9
:104950008CE20E94C14664E170E080E090E00E9439
:10496000ED4361E08CE20E94C14666E970E080E0C0
:1049700090E00E94ED4389819A8165EF7DE206D047
:1049800000000F900F90DF91CF910895CF93DF93A8
:10499000CDB7DEB766970FB6F894DEBF0FBECDBFBA
:1049A0009C8B8B8B7E8B6D8B8D899E899C012F5F61
:1049B0003F4F3E8B2D8B9C838B838B819C81FC0195
:1049C00084918D838D81898389819FEF980F99834D
:1049D00091E0882309F490E0992309F46DC08D8952
:1049E0009E899C012F5F3F4F3E8B2D8B9F838E8333
:1049F0008E819F81FC018491888728858B899C8981
:104A0000622F29DF8D899E899C012F5F3F4F3E8B4E
:104A10002D8B9A87898789859A85FC0184918B875C
:104A20008B858A838A8180788C878A818F778A8335
:104A30008A819FEF980F9A8391E0882309F490E090
:104A40009923A1F08D899E899C012F5F3F4F3E8B5A
:104A50002D8B9E878D878D859E85FC0184918F8708
:104A60002F858B899C89622F23DFE2CF8C85882359
:104A700009F4AACF8D899E899C012F5F3F4F3E8B01
:104A80002D8B998B888B88899989FC0184918A8BDD
:104A90008A898C878C858F3F31F08C85882F90E0B8
:104AA000A0E0B0E004C084EF91E0A0E0B0E0BC0181
:104AB000CD010E94ED4388CF000066960FB6F894B2
:104AC000DEBF0FBECDBFDF91CF910895EF92FF9271
:104AD0000F931F93CF93DF9300D01F92CDB7DEB714
:104AE0009A8389837C836B8389819A81FC01848981
:104AF0009589BC0189819A81FC0182899389AC01E5
:104B00002B813C8189819A8179018B019A0140E056
:104B100050E060E070E0ABD500000F900F900F9078
:104B20000F90DF91CF911F910F91FF90EF9008951B
:104B3000CF93DF9300D000D0CDB7DEB79A838983BF
:104B40007C836B835E834D8389819A812B813C8139
:104B5000FC013187208789819A812D813E81FC016A
:104B600033872287000026960FB6F894DEBF0FBE6B
:104B7000CDBFDF91CF910895CF93DF9300D0CDB714
:104B8000DEB79A8389836B838B81883010F087E04E
:104B90008B838B81882311F02B8101C021E08981D7
:104BA0009A81FC0121A300000F900F900F90DF91DC
:104BB000CF910895CF93DF9300D000D0CDB7DEB76B
:104BC0009A8389837C836B835E834D8389819A81F9
:104BD0002B813C81FC01378B268B89819A812D8129
:104BE0003E81FC01318F208F000026960FB6F8948D
:104BF000DEBF0FBECDBFDF91CF910895CF92EF9270
:104C0000FF920F931F93CF93DF93CDB7DEB7A1979A
:104C10000FB6F894DEBF0FBECDBF9F8B8E8B798F02
:104C2000688F5B8F4A8F2C8F1E8F0D8FF8A2EF8EAF
:104C3000C9A28E899F89FC01828993899C01888DF4
:104C4000998D821793070CF004C28E899F89FC010D
:104C5000848995899C018A8D9B8D821793070CF01E
:104C6000F8C189A1282F30E0C901880F991F820F50
:104C7000931F880F991F9C01888D998D820F931F18
:104C8000019799230CF4E5C189A1882F90E09C013C
:104C9000220F331F220F331F220F331F8A8D9B8D4C
:104CA000820F931F019799230CF4D3C141E02F8DFC
:104CB00038A18D8D9E8D2817390709F440E049876A
:104CC00089A1813009F0E9C08985882309F4E5C00C
:104CD00081E089838A8D9B8DFC013896888D998D22
:104CE0009C012B5F3F4F4A8D5B8D688D798D8E893E
:104CF0009F898F01BDD11A828A8185305CF58A81B6
:104D0000082E000C990B9E01205F3F4FA901480F10
:104D1000591F8C8D282F30E0C901880F991F880FEB
:104D2000991F820F931F9C018A81082E000C990BFA
:104D3000820F931F865C9E4F9B878A878A859B85FF
:104D4000FC0184918C878C85FA0180838A818F5F36
:104D50008A83D2CF1D8A1B828B8188300CF08BC056
:104D60001C828C8185300CF05CC08C81082E000C7C
:104D7000990B9E01205F3F4F820F931FFC01908192
:104D800089818923882329F18DE490E0FC018081C9
:104D90008095881F8827881F882309F0F5CF8EE427
:104DA00090E02D8D3E8D232F3327FC0120830000C2
:104DB0008DE490E0FC0180818095881F8827881F02
:104DC000882309F0F5CF8EE490E02D8DFC0120833F
:104DD00024C08DE490E0FC0180818095881F8827A5
:104DE000881F882309F0F5CF8EE490E02F8D38A13D
:104DF000232F3327FC01208300008DE490E0FC0189
:104E000080818095881F8827881F882309F0F5CF27
:104E10008EE490E02F8DFC0120838C818F5F8C834A
:104E2000A0CF8981880F89838DE490E0FC01808187
:104E30008095881F8827881F882309F0F5CF8EE486
:104E400090E02F8D38A1232F3327FC0120838DE4A0
:104E500090E0FC0180818095881F8827881F882327
:104E600009F0F5CF8EE490E02F8DFC0120838B813B
:104E70008F5F8B8371CF8DE490E0FC018081809502
:104E8000881F8827881F882309F0F5CF6BDBFC017A
:104E900020812460FC012083DDC01D828D8186304D
:104EA0000CF0D8C08D81853011F41E821CC08C8D11
:104EB000282F30E0C901880F991F880F991F820F92
:104EC000931F9C018D81082E000C990B820F931F5C
:104ED000865C9E4F9E878D878D859E85FC01849183
:104EE0008F878F858E8389A1813069F51F828F819D
:104EF00088300CF0AAC08E81882F90E081709927AD
:104F0000892BB9F08F81282F880F330B8A8D9B8DC9
:104F1000820F931FAC018D81282F880F330B888D52
:104F2000998D820F931FBC012D8D3E8D8E899F8997
:104F3000A0D18E81882F90E0959587958E838F8163
:104F40008F5F8F83D4CF1886888588300CF07DC022
:104F50008E81882F90E081709927892BA9F189A1F2
:104F6000082F10E089A1A82FB0E08885482F880F6E
:104F7000550B89A1882F90E0489F9001499F300DE3
:104F8000589F300D11248A8D9B8DF901E80FF91F70
:104F90008D81482F880F550B89A1882F90E0489F5D
:104FA0009001499F300D589F300D1124888D998DA7
:104FB000B901680F791F2D8D3E8D8E899F897901EA
:104FC0009D01AF0154D337C089858823A1F189A100
:104FD000082F10E089A1A82FB0E08885482F880FFE
:104FE000550B89A1882F90E0489F9001499F300D73
:104FF000589F300D11248A8D9B8DF901E80FF91F00
:105000008D81482F880F550B89A1882F90E0489FEC
:105010009001499F300D589F300D1124888D998D36
:10502000B901680F791F2F8D38A18E899F89790169
:105030009D01AF011CD38E81882F90E095958795B7
:105040008E8388858F5F88877FCF8D818F5F8D83EB
:1050500025CF0000A1960FB6F894DEBF0FBECDBFDE
:10506000DF91CF911F910F91FF90EF90CF90089516
:105070000F931F93CF93DF93CDB7DEB72A970FB669
:10508000F894DEBF0FBECDBF9A8389837C836B8388
:105090005E834D8338872F831A87098763DAFC0183
:1050A00020812D7FFC0120835DDAFC0120812B7F94
:1050B000FC0120838EE490E02AE2FC01208300962C
:1050C0000096009601D001C008954CDAFC012081C1
:1050D0002260FC0120838EE490E02B813C81232F11
:1050E000330F330BFC0120830000009601D001C078
:1050F000089589819A812FEF3FEFFC01378F268F2A
:105100008EE490E02B81FC0120830000009601D00A
:1051100001C0089589819A81FC01248535858F819C
:1051200098852817390709F18EE490E02F8138859A
:10513000232F330F330BFC0120830000009601D096
:1051400001C00895000089819A812F813885FC0172
:10515000358724878EE490E02F81FC0120830000B6
:105160000096009601D001C00895FCD9FC01208171
:105170002D7FFC0120838EE490E02BE2FC01208354
:1051800000960096009601D001C00895EBD9FC016D
:1051900020812260FC0120838EE490E02D813E81FD
:1051A000232F330F330BFC0120830000009601D026
:1051B00001C0089589819A812FEF3FEFFC01358F5F
:1051C000248F8EE490E02D81FC0120830000009666
:1051D00001D001C0089589819A81FC012685378517
:1051E00089859A852817390709F18EE490E0298589
:1051F0003A85232F330F330BFC01208300000096E8
:1052000001D001C00895000089819A8129853A85DD
:10521000FC01378726878EE490E02985FC012083F6
:1052200000000096009601D001C008959BD9FC01B2
:1052300020812D7FFC0120838EE490E02CE2FC0194
:10524000208300000096009601D001C008958AD9FD
:10525000FC0120812260FC01208300002A960FB609
:10526000F894DEBF0FBECDBFDF91CF911F910F919C
:105270000895CF93DF93CDB7DEB728970FB6F89494
:10528000DEBF0FBECDBF9A8389837C836B835E8331
:105290004D8338872F8389819A81FC012289338944
:1052A0008B819C818217930708F002C189819A81C2
:1052B000FC01248935898D819E818217930708F02E
:1052C000F7C050D9FC0120812B7FFC01208389810C
:1052D0009A81FC01268D378D8B819C812817390797
:1052E00009F44BC03FD9FC0120812D7FFC012083B4
:1052F0008EE490E02AE2FC0120830000009601D0B9
:1053000001C0089589819A812B813C81FC01378FEE
:10531000268F28D9FC0120812260FC0120838EE4A5
:1053200090E02B813C81232F3327FC01208302D086
:1053300001D001C0089500008EE490E02B81FC01B3
:10534000208302D001D001C0089500008EE490E0D7
:105350002B813C81232F3327FC01208302D001D0F5
:1053600001C0089500008EE490E02B81FC012083B1
:105370000000009601D001C0089589819A81FC0146
:10538000248D358D8D819E812817390709F44CC0F5
:10539000E9D8FC0120812D7FFC0120838EE490E080
:1053A0002BE2FC0120830000009601D001C008958B
:1053B00089819A812D813E81FC01358F248FD2D83D
:1053C000FC0120812260FC0120838EE490E02D818D
:1053D0003E81232F3327FC01208302D001D001C05E
:1053E000089500008EE490E02D81FC01208302D01E
:1053F00001D001C0089500008EE490E02D813E812F
:10540000232F3327FC01208302D001D001C008954F
:1054100000008EE490E02D81FC01208300000096C6
:10542000009601D001C008959DD8FC0120812D7FF8
:10543000FC0120838EE490E02CE2FC0120830096A6
:105440000096009601D001C008958CD8FC012081FF
:105450002260FC0120838EE490E02F813885232F89
:105460003327FC01208300960096009601D001C0EE
:1054700008952B813C8189819A81FC01358724879D
:105480008EE490E02F81FC0120830000009601D083
:1054900001C008952D813E8189819A81FC01378761
:1054A000268760D8FC0120812460FC01208301C094
:1054B000000028960FB6F894DEBF0FBECDBFDF9177
:1054C000CF910895CF93DF931F921F92CDB7DEB790
:1054D0009A83898347D8FC0120812D7FFC0120839A
:1054E00041D8FC0120812B7FFC0120838EE490E0D9
:1054F0002AE2FC01208300960096009601D001C0AC
:10550000089530D8FC0120812260FC0120838EE4C4
:1055100090E0FC01108200000096009601D001C0CE
:10552000089589819A81FC01178E168E8EE490E091
:10553000FC0110820000009601D001C0089589810D
:105540009A81FC018289938901979C0189819A81C2
:10555000FC01358724878EE490E029813A81F901A6
:1055600024853585232F330F330BFC0120830096D0
:105570000096009601D001C008958EE490E0298144
:105580003A81F90124853585FC01208300000096CD
:10559000009601D001C008950E94B222FC01208132
:1055A0002D7FFC0120838EE490E02BE2FC01208320
:1055B00000960096009601D001C008950E94B22284
:1055C000FC0120812260FC0120838EE490E0FC013C
:1055D000108200000096009601D001C008958981D4
:1055E0009A81FC01158E148E8EE490E0FC011082ED
:1055F0000000009601D001C0089589819A81FC01C4
:105600008489958901979C0189819A81FC0137875A
:1056100026878EE490E029813A81F9012685378535
:10562000232F330F330BFC01208300960096009646
:1056300001D001C008958EE490E029813A81F901FA
:1056400026853785FC01208300000096009601D056
:1056500001C008950E94B222FC0120812460FC0157
:10566000208300000F900F90DF91CF910895EF926B
:10567000FF920F931F93CF93DF93CDB7DEB7619760
:105680000FB6F894DEBF0FBECDBF9F838E837987A0
:1056900068875B874A873D872C871F870E87F98A33
:1056A000E88A2A853B858E859F85820F931FFC01A2
:1056B0003197288539858C859D85820F931F9C01A4
:1056C000215031094A855B85688579858E819F8166
:1056D0008F01CEDC8E859F859C01215031093F874B
:1056E0002E8721E0892B09F420E0222321F18889EB
:1056F00099899A8389838C859D859C838B83298155
:1057000089819A81892F9927382F8B819C810097D5
:1057100071F03EBD02D001D001C0089500002EBD41
:105720000096009601D001C00895019791F72D834E
:105730009C838B83CFCF0E94B222FC012081246006
:10574000FC012083000061960FB6F894DEBF0FBE07
:10575000CDBFDF91CF911F910F91FF90EF900895F2
:10576000CF93DF9300D0CDB7DEB79A8389836B8365
:105770008B81282F277089819A81FC0123A389813D
:105780009A8166E368D889819A81FC0183A1882F78
:1057900090E0092E000CAA0BBB0B40E050E027E084
:1057A00030E0841B950B2817390708F4A0C0FC01D2
:1057B0008827EE58FF4F8F4F0C946C6189819A8136
:1057C00068E476D889819A8120EF30E0FC01338B40
:1057D000228B89819A8120E431E0FC01358B248B76
:1057E00086C089819A8168E263D889819A8120E4A0
:1057F00031E0FC01338B228B89819A8120EF30E0EC
:10580000FC01358B248B73C089819A8168E850D85C
:1058100089819A8120EF30E0FC01338B228B8981D2
:105820009A8120E431E0FC01358B248B60C08981B2
:105830009A8168EE3DD889819A8120E431E0FC01AB
:10584000338B228B89819A8120EF30E0FC01358BEC
:10585000248B4DC089819A8168EC2AD889819A81EC
:1058600020EF30E0FC01338B228B89819A8120E488
:1058700031E0FC01358B248B3AC089819A8168E63E
:1058800017D889819A8120E431E0FC01338B228B87
:1058900089819A8120EF30E0FC01358B248B27C071
:1058A00089819A8168E004D889819A8120EF30E06B
:1058B000FC01338B228B89819A8120E431E0FC0149
:1058C000358B248B14C089819A8168EA0E94582400
:1058D00089819A8120E431E0FC01338B228B89811C
:1058E0009A8120EF30E0FC01358B248B0000898108
:1058F0009A81E8DD89819A812FEF3FEFFC01358F96
:10590000248F89819A812FEF3FEFFC01378F268FFB
:1059100089819A812FEF3FEFFC01358724878981A8
:105920009A812FEF3FEFFC013787268700000F9009
:105930000F900F90DF91CF9108950F931F93CF9306
:10594000DF93CDB7DEB764970FB6F894DEBF0FBE16
:10595000CDBF9B8B8A8B6C8B8C898D3019F481E049
:1059600090E030C11A8219821C821B828A899B892D
:10597000DC0190968C91823061F58C89882F90E0C3
:1059800080978B5C994F9E838D838D819E81FC01D6
:1059900084918F838F81882F90E09A83898380E11F
:1059A00090E09C838B8389819A8106969695879552
:1059B00096958795969587959A83898389819A810B
:1059C000880F991F880F991F880F991F9A838983C1
:1059D0004EC08A899B89DC0190968C91282F30E0FB
:1059E000C901880F991F880F991F820F931F029674
:1059F0008853924D9987888788859985FC012591E0
:105A00003491CF013B872A87998788872A853B85F0
:105A10008C89882F90E0820F931F80979D878C87B9
:105A20008C859D85FC0184918E878E85882F90E0E2
:105A30009A8389838A899B89DC0190968C91282F8F
:105A400030E0C901880F991F880F991F820F931F9B
:105A500004968853924D988B8F878F859889FC0187
:105A60008491898B8989882F90E09C838B838A8994
:105A70009B89DC0190968C91813041F486E090E026
:105A80009A83898388E090E09C838B838A899B89B1
:105A9000FC0181A1282F30E04B815C81429FC00135
:105AA000439F900D529F900D11249C838B838C8972
:105AB0008A30D1F48A899B89DC011A968D919C9158
:105AC0001B979C018B819C81820F931F9C018A896B
:105AD0009B89FC01338722878A899B89DC0119967F
