S01C00004D6F74686572626F6172645F4669726D776172652E73726563F5
S11300000C94B8190C9496480C94C1480C94EC4880
S11300100C9417490C9442490C946D490C949849DA
S11300200C94C3490C94E9190C94E9190C94E9193A
S11300300C947F530C94E9190C94E9190C94E91964
S11300400C94E9190C94E9190C94E9190C94E91924
S11300500C94E9190C94E9190C94E9190C94EE49DF
S11300600C94E9190C9486450C94BC450C94E9193C
S11300700C94E9190C94E9190C94E9190C94E919F4
S11300800C94E9190C94E9190C94E9190C94E919E4
S11300900C941B460C9451460C94E9190C94E919E0
S11300A00C94E9190C94E9190C94E9190C94E919C4
S11300B00C94E9190C94E9190C94E9190C94E919B4
S11300C00C94E9190C94E9190C94E9190C94E919A4
S11300D00C94E9190C94E9190C94E9190C94E91994
S11300E00C94E919723185319831AB31BF31D33178
S11300F0E731FB31063F153F223F313F4C3F653F1F
S1130100723F8B3F07634236B79BD8A71A396856AC
S113011018AEBAAB558C1D3CB7CC5763BD6DEDFD25
S1130120753EF6177231BF000000803F08000000E2
S1130130BE922449123EABAAAA2ABECDCCCC4C3ED8
S113014000000080BEABAAAAAA3E00000000BF00C7
S11301500000803F0000000000084178D3BB4387C3
S1130160D1133D190E3CC3BD4282AD2B3E68EC82D7
S113017076BED98FE1A93E4C80EFFFBE01C4FF7F5C
S11301803F000000000070483A4842484E485B482F
S11301907C4889481F4B224B114B154B1B4B594B29
S11301A0264B2A4B304B344B384B3E4B424B464B41
S11301B0594B4C4B504B544B6C196C196C19AB1973
S11301C09619A5196C196C19AB19961900407A1077
S11301D0F35A00A0724E18090010A5D4E80000E8F4
S11301E07648170000E40B54020000CA9A3B000052
S11301F000E1F505000080969800000040420F00E1
S11302000000A08601000000102700000000E803A1
S1130210000000006400000000000A00000000006C
S11302200100000000002C76D888DC674F0823DF2B
S1130230C1DFAE59E1B1B796E5E3E453C63AE651FE
S1130240997696E8E6C28426EB898C9B62ED407C25
S11302506FFCEFBC9C9F40F2BAA56FA5F490055AC1
S11302602AF75C936B6CF9676DC11BFCE0E40D47E6
S1130270FEF520E6B500D0ED902E03009435770509
S11302800080841E080000204E0A000000C80C33C1
S11302903333330F986E12831141EF8D2114893B50
S11302A0E65516CFFEE6DB18D1844B381BF77C1DD0
S11302B0901DA4BBE424203284725E228100C9F123
S11302C024ECA1E53D2700000000003E5B4F5B3EAF
S11302D03E6B4F6B3E1C3E7C3E1C183C7E3C181C07
S11302E0577D571C1C5E7F5E1C00183C1800FFE7FE
S11302F0C3E7FF0018241800FFE7DBE7FF30483AA4
S1130300060E2629792926407F050507407F052505
S11303103F5A3CE73C5A7F3E1C1C08081C1C3E7F8D
S113032014227F22145F5F005F5F06097F017F0054
S11303306689956A606060606094A2FFA294080474
S11303407E040810207E201008082A1C08081C2A95
S113035008081E101010100C1E0C1E0C30383E38ED
S113036030060E3E0E06000000000000005F000094
S11303700007000700147F147F14242A7F2A122305
S11303801308646236495620500008070300001C15
S11303902241000041221C002A1C7F1C2A08083E1E
S11303A00808008070300008080808080000606031
S11303B00020100804023E5149453E00427F40009F
S11303C072494949462141494D331814127F102777
S11303D0454545393C4A49493141211109073649C6
S11303E0494936464949291E00001400000040349A
S11303F0000000081422411414141414004122149F
S11304000802015909063E415D594E7C1211127CC5
S11304107F494949363E414141227F4141413E7F26
S1130420494949417F090909013E414151737F0806
S113043008087F00417F41002040413F017F0814AC
S113044022417F404040407F021C027F7F0408100D
S11304507F3E4141413E7F090909063E4151215EEB
S11304607F09192946264949493203017F01033F7F
S11304704040403F1F2040201F3F4038403F63140E
S113048008146303047804036159494D43007F4110
S113049041410204081020004141417F040201024D
S11304A00440404040400003070800205454784072
S11304B07F284444383844444428384444287F3806
S11304C05454541800087E090218A4A49C787F0888
S11304D004047800447D40002040403D007F102803
S11304E0440000417F40007C047804787C080404C4
S11304F0783844444438FC1824241818242418FC5C
S11305007C08040408485454542404043F44243C00
S11305104040207C1C2040201C3C4030403C44286F
S11305201028444C9090907C4464544C4400083609
S11305304100000077000000413608000201020477
S1130540023C2623263C1EA1A161123A4040207A97
S113055038545455592155557941215454784121E1
S11305605554784020545579400C1E527212395516
S11305705555593954545459395554545800004513
S11305807C410002457D420001457C40F02924293C
S1130590F0F0282528F07C545545002054547C5410
S11305A07C0A097F49324949493232484848323243
S11305B04A4848303A4141217A3A42402078009DE5
S11305C0A0A07D39444444393D4040403D3C24FF93
S11305D02424487E4943662B2FFC2F2BFF0929F640
S11305E020C0887E090320545479410000447D4191
S11305F03048484A32384040227A007A0A0A727DEA
S11306000D19317D2629292F282629292926304804
S11306104D4020380808080808080808382F10C872
S1130620ACBA2F102834FA00007B000008142A14F6
S11306302222142A1408AA005500AAAA55AA55AAC7
S1130640000000FF00101010FF00141414FF00102D
S113065010FF00FF1010F010F0141414FC00141418
S1130660F700FF0000FF00FF1414F404FC14141737
S1130670101F10101F101F1414141F00101010F05E
S1130680000000001F101010101F10101010F010A8
S1130690000000FF101010101010101010FF1000B8
S11306A00000FF140000FF00FF00001F10170000EF
S11306B0FC04F414141710171414F404F40000FFC9
S11306C000F714141414141414F700F71414141762
S11306D01410101F101F141414F4141010F010F040
S11306E000001F101F0000001F14000000FC140075
S11306F000F010F01010FF10FF141414FF14101069
S1130700101F00000000F010FFFFFFFFFFF0F0F0EB
S1130710F0F0FFFFFF0000000000FFFF0F0F0F0FBE
S11307200F38444438447C2A2A3E147E02020606CA
S1130730027E027E0263554941633844443C0440CE
S11307407E201E2006027E020299A5E7A5991C2A96
S1130750492A1C4C7201724C304A4D4D3030487855
S11307604830BC625A463D3E494949007E01010178
S11307707E2A2A2A2A2A44445F444440514A444057
S113078040444A51400000FF0103E080FF0000089C
S1130790086B6B083612362436060F090F06000064
S11307A018180000001010003040FF0101001F0164
S11307B0011E00191D1712003C3C3C3C00000000C7
S11307C000060304090809090307070806030605C8
S11307D007080808080808080808080303060606A6
S11307E008090808080808080808040808070A0887
S11307F008080808080808080A080808040704077D
S1130800090407070707070607070405060408077E
S1130810080708060605070808060707050305086C
S113082006000000000000000000000000000000BE
S11308300000000040404040404040400040000074
S1130840000000A0A0A000000000000000000000C4
S113085000000000242424FF2424FF242424000076
S1130860000000003C4240407040704040FE0000E8
S113087000000000619192640810264989860000F6
S113088000000000205088885020528C8C73000097
S11308900000004040408000000000000000000014
S11308A000000C1020404080808080804040201058
S11308B00C00C020100808040404040408081020D4
S11308C0C000000000109254385492100000000040
S11308D0000000000000002020F82020000000009C
S11308E0000000000000000000000000C0C04080C4
S11308F0000000000000000000F8000000000000FC
S1130900000000000000000000000000C0C0000063
S113091000000004040808101020204040808000DB
S1130920000000003844448282828244443800003B
S1130930000000001030501010101010107C000047
S113094000000000384482020418204080FE0000A9
S11309500000000078840204380402028478000055
S113096000000000040C14244484FE040404000069
S113097000000000FC808080F804020284780000FB
S1130980000000003C408080B8C4828244380000EB
S1130990000000007E020204040808101010000089
S11309A00000000038448244384482824438000005
S11309B00000000038448282463A020204780000B3
S11309C000000000000000C0C000C0C00000000023
S11309D000000000000000C0C000C0C04080000053
S11309E00000000000081020408040201008000093
S11309F00000000000000000F800F8000000000003
S1130A0000000000008040201008102040800000FA
S1130A100000000038448202040810100010000096
S1130A20000000003C4299A5A5A5A59E403E0000FB
S1130A30000000001010282844447C8282820000B8
S1130A4000000000F8848284F884828284F8000024
S1130A50000000003C42808080808080423C000096
S1130A6000000000F88482828282828284F800007E
S1130A7000000000FE808080FC80808080FE0000FA
S1130A8000000000FE808080F8808080808000006C
S1130A90000000003C428080809C8282423C000036
S1130AA00000000084848484FC84848484840000A2
S1130AB000000000E04040404040404040E0000072
S1130AC00000000002020202020202824438000016
S1130AD000000000848890A0C0A090888482000058
S1130AE000000000808080808080808080FC000086
S1130AF000000000000000C180C180A280A2809498
S1130B00809480888088808080808000000000003D
S1130B1000000000C2C2A2A292928A8A86860000C5
S1130B2000000000384482828282828244380000BD
S1130B3000000000F88482828284F88080800000B3
S1130B40000000003844828282828282443808068F
S1130B5000000000F884828284F890888482000077
S1130B600000000038448280601C02824438000087
S1130B7000000000FE1010101010101010100000E3
S1130B8000000000828282828282828244380000D5
S1130B900000000082828282444428281010000051
S1130BA000000000000000808080808080888088B1
S1130BB0804900550055002200220000000000007A
S1130BC00000000082824428101028448282000021
S1130BD000000000828282442810101010100000CF
S1130BE000000000FE0204081010204080FE0000F7
S1130BF0000000E080808080808080808080E00031
S1130C0000000004040808101020204040808000E8
S1130C10000000E020202020202020202020E000D0
S1130C200000102844000000000000000000000044
S1130C3000000000000000000000000000000000B0
S1130C40000000000000000000000000000000FFA1
S1130C500000000000000000000000000000000090
S1130C6000000000404040200000000000000000A0
S1130C7000000000000000700804748C8C740000F4
S1130C8000000000008080B0C8848484C8B00000E4
S1130C9000000000000000384480808044380000D8
S1130CA000000000000404344C8484844C340000AC
S1130CB000000000000000384484F880443800003C
S1130CC0000000003048404040E040404040000008
S1130CD000000000000000304C8484844C3404087C
S1130CE070000000808080B0C88484848484000004
S1130CF000000000004000404040404040400000F0
S1130D00000000000010003010101010101010909F
S1130D10600000008080808890A0C0A090880000BF
S1130D2000000000C04040404040404040400000BF
S1130D3000000000000000ACD29292929292000057
S1130D4000000000000000B0C88484848484000093
S1130D500000000000000038448282824438000011
S1130D6000000000000000B0C8848484C8B0808003
S1130D7080000000000000344C8484844C3404045B
S1130D8006000000000000B0C88080808080000061
S1130D900000000000000070888070088870000067
S1130DA000000000004040E040404040403000006F
S1130DB00000000000000084848484844C3400001B
S1130DC0000000000000008282828244281000009B
S1130DD0000000000000008282829292AA44000077
S1130DE0000000000000008888502050888800001F
S1130DF00000000000000084848484844C340408CF
S1130E0070000000000000FC0408304080FC00007A
S1130E1000001020202020202040202020202020FE
S1130E20100000404040404040404040404040406E
S1130E3000004020202020202010202020202020DE
S1130E4040000000324C00000000000000000000E0
S1130E50000000304848300000000000000000009E
S1130E60002108310841085108610871088108917E
S1130E7008A108B108C108D108E108F10801091165
S1130E80092109310941095109610971098109914E
S1130E9009A109B109C109D109E109F109010A113D
S1130EA00A210A310A410A510A610A710A810A9126
S1130EB00AA10AB10AC10AD10AE10AF10A110B21F5
S1130EC00B310B410B510B610B710B810B910BA17E
S1130ED00BC10BD10BE10BF10B010C110C210C41DB
S1130EE00C610C710C810C910CA10CB10CC10CD1D6
S1130EF00CE10CF10C010D110D210D310D410D51C1
S1130F000D610D710D810D910DA10DB10DC10DD1AD
S1130F100DE10DF10D010E110E210E310E410E5198
S1130F200E050808130E15110608080C0A07080711
S1130F30080E0E0E0E0E0E0E0E0E0E07070E090EE6
S1130F400D1910111212100F1312060D110D151296
S1130F5013101311100E120F170F1010090D090C96
S1130F600D090E0F0D0F0E080F0F06060C06160FB7
S1130F700F0F0F080C070E0C120D0D0C0D0D0D0F9D
S1130F80017F010A810581058105810581058105AE
S1130F90810581058105810581058105811581050D
S1130FA08105813A098001800380018003800180EA
S1130FB0038001800380018003800180038001801D
S1130FC07F112E8101810C8002800D8002800C81B2
S1130FD001810C8002800D800280088D08800280CF
S1130FE00D8002800D800280088D088002800D80B3
S1130FF002800C8101810C8002800D8002800C81B2
S113100001817F0D1F850589038203820281078187
S11310100181078101810B820B810A8707810B8182
S11310200B810B810A810B860280018B0181048371
S1131030632D82078105860580068102810481056E
S11310408104810281068104810280078104810177
S113105081088102810280098601800C820281025A
S1131060820C800186098002810281088101810449
S11310708107800281048106810281048105810443
S1131080810281068005860581078207807F0C1511
S1131090840A860882028207810481078104810709
S11310A0810382088101820A840A830B85038103F8
S11310B0820182028102820382018102810584030A
S11310C081068303810781048204850388018203E6
S11310D08504827606820282028204800381028170
S11310E0740D8105800581058005810581058104D4
S11310F081058105810581058105810581058105BC
S113110081058106810581058106800681068006A8
S11311108107078106800681068006810581058195
S1131120068105810581058105810581058105818A
S1131130058105810481058105810580058105807E
S113114005810D10810981098106800181018002D8
S11311508903850683068101810482018204800358
S1131160807F3653810781078104870187048107C3
S11311708107816771820382038205800481048070
S11311800481175885018568718203820382320DB8
S1131190810581058005810581058005810581051D
S11311A0800581058105800581058105800581050E
S11311B0810580058105812D2083078704830183B0
S11311C003810581028205820181078101810781F2
S11311D001810781018107810181078101810781E3
S11311E001810781018205820281058103830183D4
S11311F0048707836622810B810A82078507850B92
S1131200810B810B810B810B810B810B810B810B7A
S1131210810B810B810B81661F8505890382038203
S11312200282068101810781018107810B810A8283
S11312300883078406840783088209820A810B8B4A
S1131240018B621F85068704820382038105810264
S11312508205810B810A82078408850B820B810138
S11312608107810181078101820582028203820351
S11312708905856524810A8209830983088100819F
S11312800781018106810281068102810581038132
S11312900481048103810581038B018B09810B8106
S11312A00B810B81641D89038903810B810B810BE5
S11312B0810084058902830382028106820B810BEB
S11312C0810B8101810781018205820282038203ED
S11312D0890585652084068803820481038106814B
S11312E00281068101810B810184048A02830382C5
S11312F002820582018107810181078101810781C1
S1131300028105820282038204880585651C8B01A3
S11313108B0A810A8209820A810A820A810A810B64
S1131320810A820A810B810B810A810B810B8169FD
S11313302083078705810381048105810381058159
S11313400381058104810381068506870482038263
S11313500281078101810781018107810181078160
S11313600282038203890585651F8505880482033B
S1131370820282058102810781018107810181073F
S1131380810182058202820383028A048401810B23
S1131390810181068102810681038104820388051B
S11313A086652B8203820382348203820382322B7A
S11313B082038203823482038203820580048104CF
S11313C0800481176B8208820783078208810D825B
S11313D00D820C820C827F0C518601861386018655
S11313E06362820C820C830C820D8108820783075E
S11313F08208827F15108504880382038201820596
S1131400810181068101810681098208820882089E
S1131410820981098209822382098209825F2188E3
S11314200D82068209820A8107810D8105810F815F
S11314300480068301800381028104810283038185
S11314400281038104810481018104810481048176
S11314500181038105810481018103810581048166
S11314600181038104810481028103810481048157
S11314700281038104810381048103810282028148
S11314800581048301840781178117810B810982F7
S113149005830D876C15830B830B830A81018109F6
S11314A08101810981018108810381078103810709
S11314B081038106810581058105810589048B03EA
S11314C081078103810781028109810181098100EA
S11314D08209826F128A058C038107820381088145
S11314E003810881038108810381088103810782C4
S11314F0038A058C038107820381098102810981A2
S1131500028109810281098102810782038C038A95
S11315107A1786088A058304830382088103810A73
S11315208101820A8101810F810F810F810F810F57
S1131530810B8101820A810281098202820881046D
S1131540830483058A08867F021389078B05810635
S11315508304810882038109810381098202810A4B
S11315608102810A8102810A8102810A8102810A3F
S11315708102810A81028109820281098103810831
S11315808203810683048B05897F03118C028C02FC
S1131590810D810D810D810D810D810D8B038B03D7
S11315A0810D810D810D810D810D810D8C028C7059
S11315B0108B028B02810C810C810C810C810C81BB
S11315C00C8A038A03810C810C810C810C810C81AF
S11315D00C810C81731886098A06820583048208AB
S11315E0810481098202820F8110811081058702A2
S11315F081058702810B8102810B8102820A8103AA
S11316008109820382078304830484058900810796
S11316108503807F06138109810381098103810980
S1131620810381098103810981038109810381097E
S113163081038D038D03810981038109810381095C
S1131640810381098103810981038109810381095E
S11316508103810981038109817F078103810381DA
S11316600381038103810381038103810381038156
S113167003810381038103810381038103812B158A
S1131680810A810A810A810A810A810A810A810AFE
S1131690810A810A810A8101810681018106810111
S11316A081068101820482028804865E1281088296
S11316B002810782038106820481058205810482F6
S11316C006810382078102820881018209810083E5
S11316D009870883018207820382068105810681C6
S11316E005820581068204810782038108820281C2
S11316F00982760E810A810A810A810A810A810A95
S1131700810A810A810A810A810A810A810A810A7D
S1131710810A810A8A018A5A16820A82038308830B
S11317200383088303830883038100810681008186
S1131730038100810681008103810081068100818B
S1131740038101810481018103810181048101817B
S1131750038101810481018103810281028102816B
S1131760038102810281028103810281028102815B
S1131770038103810081038103810381008103814B
S1131780038103840381038104820481038104822D
S113179004817F14138208810382088103830781F3
S11317A0038406810381008106810381008205810F
S11317B00381018204810381028104810381028205
S11317C003810381038202810381048102810381F5
S11317D004820181038105820081038106810081E5
S11317E003810684038107830381088203810882BD
S11317F07F1886098A068304830482088203810A87
S11318008102820A8201810C8101810C8101810C97
S11318108101810C8101810C8101810C8101820A89
S11318208202810A810382088204830483068A096E
S1131830867F0A118A048B03810782028108810250
S11318408108810281088102810881028107820264
S11318508B038A04810D810D810D810D810D810D14
S1131860810D817B1886098A068304830482088299
S113187003810A8102820A8201810C8101810C8127
S113188001810C8101810C8101810C8101810C8118
S1131890018206800282028105820181038205851C
S11318A004830483068C07860182108073128B04E0
S11318B08C038108820281098102810981028109E4
S11318C0810281098102810881038C038B048107D1
S11318D082038108810381088202810981028109CE
S11318E0810281098102810981028109817714853C
S11318F007890482058203810781038107810381AB
S1131900078202820D840B860B850C830D82018273
S11319100881028108810281088102830582038A89
S11319200686730D9B05810B810B810B810B810B4B
S1131930810B810B810B810B810B810B810B810B43
S1131940810B810B816713810981038109810381E3
S1131950098103810981038109810381098103814B
S1131960098103810981038109810381098103813B
S1131970098103810981038109810381098103822A
S1131980078204820582068908877F020E82088204
S11319900081088101810881018108810281068119
S11319A00381068103810681048104810581048108
S11319B005810481068102810781028107810281F8
S11319C0088100810981008109840A820B826E16D4
S11319D082068206820081068206810181068206D1
S11319E081018204810081048202810481008104D6
S11319F081038104810081048103810481008104C5
S1131A0081038202810281028204810281028102B5
S1131A1081058102810281028105810281028102A4
S1131A208105820081048100820681008104810095
S1131A308107810081048100810781008104810084
S1131A40810783068308820682098206827F250F26
S1131A508108810182068202810681048104810554
S1131A60820282068102810881008109840A820B34
S1131A70820A810081088200820781028106810432
S1131A808104820482038106810282068200820824
S1131A9082680F82098200820782028107810382A1
S1131AA00582048105810681038107820182088100
S1131AB001810A830B830C810D810D810D810D81C0
S1131AC00D810D810D8176118C028C0C820B820BA1
S1131AD0820C810C810C820B820B820C810C810C98
S1131AE0820B820B820B820C8D018D700B8403841C
S1131AF003810681068106810681068106810681AD
S1131B000681068106810681068106810681068199
S1131B10068106810681068403841201800B800BF2
S1131B20810B800B800B810B800B800B810B800B56
S1131B30800B810B800B800B810B800B800B810B46
S1131B40800B800B810B800B800B810B800E098432
S1131B500384068106810681068106810681068149
S1131B600681068106810681068106810681068139
S1131B70068106810681068103840384141082078A
S1131B808100810581028103810481018106817FB5
S1131B906F7F7F1D8C260B83038501820182008168
S1131BA003810081038100820182018503837F1AFE
S1131BB05785058804810482038105810B8105878B
S1131BC003890282058102810681028106810282E3
S1131BD0038303860083028402826110810C810CDA
S1131BE0810C810C810C81018306810086048401AF
S1131BF083038205810381068202810781028107B2
S1131C0081028107810281068202820581038401A7
S1131C108303810086048101836D528306870383D5
S1131C20018203810581018209810A810A810A8274
S1131C3005810281058102830182048706835E197E
S1131C40810C810C810C810C810683018104860046
S1131C508103830184038105820282068102810754
S1131C608102810781028107810282068103810545
S1131C70820383018404860081068301816A588378
S1131C800787048301830381058102820681018B16
S1131C90018B01810B820B810582028301830487FE
S1131CA00783660A83028402810581058103860015
S1131CB086028105810581058105810581058105EE
S1131CC0810581058105813B5E8301810486008154
S1131CD003830184038105820281078102810781D4
S1131CE002810781028107810282068103810582C4
S1131CF00383018404860081068301810C810281AF
S1131D0007810281068203820382048906851310F7
S1131D10810C810C810C810C810C81018405810072
S1131D20860483038203820581038106810381067D
S1131D308103810681038106810381068103810673
S1131D40810381068103810681038106816A0781FB
S1131D50038103810F810381038103810381038153
S1131D6003810381038103810381038103812B07A1
S1131D7081038103810F8103810381038103810333
S1131D80810381038103810381038103810381032F
S1131D9081038103810381018301820819810981FF
S1131DA009810981098104820181038202810282FD
S1131DB003810182048100820585058604820181F4
S1131DC004810282038103810381038202810481ED
S1131DD00281048253078103810381038103810308
S1131DE081038103810381038103810381038103CF
S1131DF08103810381038103812B7F058101830397
S1131E0083058100850086048302840282038204A0
S1131E108204810381058105810381058105810394
S1131E208105810581038105810581038105810582
S1131E308103810581058103810581058103810574
S1131E408105810381058105817F1B5B81018405F7
S1131E508100860483038203820581038106810352
S1131E608106810381068103810681038106810342
S1131E708106810381068103810681038106816ACB
S1131E805E840788048302830381068102820682BA
S1131E900181088101810881018108810182068212
S1131EA00281068103830283048807846D5B8101B8
S1131EB083068100860484018303820581038106ED
S1131EC082028107810281078102810781028106E2
S1131ED082028205810384018303810086048101D7
S1131EE08306810C810C810C810C81285E83018125
S1131EF004860081038301840381058202820681B2
S1131F0002810781028107810281078102820681A1
S1131F100381058203830184048600810683018191
S1131F200C810C810C810C810C811F318100820198
S1131F30850182048105810581058105810581056D
S1131F40810581058105813B4A84058702820381DD
S1131F500281058101810A84078607840981018140
S1131F6005810182038202870485560F810481045E
S1131F708104810285008502810481048104810435
S1131F8081048104810481048104830382315581A5
S1131F900681028106810281068102810681028115
S1131FA00681028106810281068102810681028105
S1131FB006810281058202820383038600810484F0
S1131FC001816247810681008106810181048102C9
S1131FD081048102810481038102810481028104DC
S1131FE081028105810081068100810684078208BF
S1131FF082586B81048204810081048204810081FF
S113200004800080048101810281008102810281B7
S113201002810081028102810281008102810281A8
S11320200280028002810381008102810081048197
S11320300081028100810481008102810081058286
S1132040048206820482068204827F014E81068114
S1132050018204820281048104810281058200825A
S11320600684088208840682008205810281048134
S1132070048102820482018106815B4D8206820012
S11320808106810181068102810481038104810327
S11320908104810481028105810281058102810616
S11320A081008107810081078100810882098209FA
S11320B08209810982068407831448890189088278
S11320C007820782078208810882078207820782C3
S11320D008890189540683078209810A810A810AD1
S11320E0810A810A810A810A810A81098108820B95
S11320F0810B810A810A810A810A810A810A810A83
S1132100810A810A820A830E04810A810A810A8172
S11321100A810A810A810A810A810A810A810A8163
S11321200A810A810A810A810A810A810A810A8153
S11321300A810A810A810A810A811201830A820AB8
S1132140810A810A810A810A810A810A810A810A33
S1132150810B810B82088109810A810A810A810A23
S1132160810A810A810A810A810982078313118302
S11321700981018107810382038000800681018136
S1132180008007837F7F2C19810F830FA40FC20F58
S1132190041031108F10D410E11012114311631187
S11321A07411831188118F11B811F511181243128B
S11321B07412A512D4120D1330136913A213AF13A2
S11321C0C413D813E113F5131E149514D414111564
S11321D049158B15B015D51515165A167F16AC165C
S11321E0F31618179417F11733186418AD18EE186E
S11321F0231946198C19CF194F1A921AC71AEC1AB7
S11322001B1B4E1B7D1B911B961BB01BDB1B1A1C3F
S11322103F1C7E1CA31CC81C0F1D4E1D6F1D9C1D46
S1132220D51DFA1D4B1E801EAD1EEC1E2B1F481F14
S11322306B1F8E1FC31FF21F4C207B20BA20D5209A
S113224008213B216E2187210C0C0C0C0C0C0C0C6E
S11322500C0C0C0C0C110F0C1B1B1B1B1B1B1B1B3A
S11322601B1B0F0C0C0C0C0C0C0C0C0C0C0C0C0C89
S11322700C0C0C0C0C0C0C0C0C0C0C0C0C0C0C0C9A
S11322800C0C0C0C0C0C0C0C0C1B0C0C0C0C0C0C7B
S11322900C0C0C0C0C2A0C0C1D0C0C0C0C0C0C0C4B
S11322A00C0C0C0C070C0C0C7F7F7F7F3F7F7F4551
S11322B08A058A058A058A7F7F7F2B7F7F7F5584E5
S11322C009840984098409847F3823870F8D0B8F3F
S11322D00991078605860684098406830B83058491
S11322E00B8404830D8304830D8304830D83038390
S11322F00F8302830F8302830F8302830F8302837E
S11323000F8302830F8302830F8302830F8302836D
S11323100F8302830F8302830F8302830F8302835D
S11323200F8302830F8303830D8304830D8304834C
S11323300D8304840B8405830B8306840984068639
S113234005860791098F0B8D0F877F7F32298217AE
S113235082168316831584148512870D8C0D8C0DBB
S11323608700830D840383168316831683168316CE
S11323708316831683168316831683168316831691
S11323808316831683168316831683168316831681
S1132390831683168316837F7F4C2487108C0B8FC0
S11323A00991088505860684098406840A830683C0
S11323B00B8404840C8304830D8304830D830483BE
S11323C00D8316831584158414841485138512864D
S11323D01187108810880F8810871186128513853D
S11323E01484148415831683159603960396039612
S11323F07F7F4523870F8D0B9008910786058606FE
S113240084098405840B8404840B8404830D83046D
S1132410830D8304830D8315841584148414850D1E
S11324208B0E89108B0E8C148615841684158402E9
S1132430830F8302830F8302830F8302840D84023C
S1132440840C8503840B8404850985058605860729
S113245091098F0B8D0F877F7F4D458315841485DC
S113246013861386128711830083118300831083DC
S113247001830F8302830E8402830E8303830D83FF
S113248004830C8305830B8405830B8306830A83EF
S113249007830984078309830883088309830783DF
S11324A00A8307970297029702971183168316836C
S11324B01683168316831683168316837F7F4A3A00
S11324C09108910891089108821683168316831641
S11324D08217821782168302870B83008B09910867
S11324E092078605860684098505830B8416831660
S11324F0841683168316831683168303830E83033D
S1132500830D8403830D8304840B8405840985056A
S11325108605860791098F0B8D0F877F7F3224866E
S1132520118B0C8E0A90088605850685098405841E
S11325300B8305830C8403840D8303830E8303833D
S113254016831583168304860A83028B0783008E01
S11325500694058805860486098404850B8403840F
S11325600D8303840D8402830F8302830F8302830C
S11325700F8302830F8302830F8303830D840383FA
S11325800D8304840B8405840985058605860791DB
S1132590098F0C8C0F887F7F31379603960396033F
S11325A09616831583158315831584148414841552
S11325B08315841484158414841583158415831554
S11325C08415841583158415831683158415831641
S11325D0831683168315841583168316837F7F538E
S11325E02485118B0C8F099107860586068409843E
S11325F005840B8404840B8404830D8304830D837A
S113260004830D8304840B8405830B83068409846B
S113261007850585098F0B8D0B8F09910785078524
S113262005840B8404830D8303840D8402830F8348
S113263002830F8302830F8302830F8302830F833A
S113264002840D8402840D8403840B84048607862B
S113265005930791098F0D897F7F3122880F8C0C98
S11326608F0991078605860585098405840B8404F2
S1132670830D8303840D8303830F8302830F8302FB
S1132680830F8302830F8302830F8302840D8403E9
S1132690830D8403840B85048409860486058805D8
S11326A094068E0083078B02830A8604831683159F
S11326B083168303830E8303830D8403840C8305B1
S11326C0830B84058409850685058608900A8E0C8B
S11326D08B11867F7F337F1A8409840984098409D6
S11326E0847F3D8409840984098409847F747F7B01
S11326F0880F8D0A9009910785068506840A84054A
S1132700830C8305830C8305830C83168315840E45
S11327108B09900792068D01830588078305840B36
S11327208304840C8304830D8304830D8304830C4A
S11327308404830B85048409860584068A038F0137
S113274084048D0284058A058307867F7F357F7F15
S11327507F058607860A830289048A0883008C021F
S11327608C0783008D008E068705890584068508FD
S113277086088405840A840A8305840A840A8305F6
S1132780830B830B8305830B830B8305830B830BE1
S11327908305830B830B8305830B830B8305830BD7
S11327A0830B8305830B830B8305830B830B8305C7
S11327B0830B830B8305830B830B8305830B830BB1
S11327C08305830B830B8305830B830B8305830BA7
S11327D0830B8305830B830B8305830B830B830597
S11327E0830B830B8305830B830B8305830B830B81
S11327F0837F7F7F7A7F7F10860C83028B0983011E
S11328008D0883008F078805860686098406850B54
S11328108405840D8305840D8305840D8404830F4E
S11328208304830F8304830F8304830F8304830F40
S11328308304830F8304830F8304830F8304830E31
S11328408404840D8305840C8405850B8405860922
S113285084068805860683008F0783018D0883021A
S11328608B098304860C83188318831883188318B0
S113287083188318831883188332A822A822A822D5
S1132880A822A822A822A822A822A822A822A822F4
S1132890A822A822AD22BB22A822CA224D239A2311
S11328A0F3235A24BF241E259925E0255B26D6262A
S11328B0A822A822A822A822A822A822A822A822C4
S11328C0A822A822A822A822A822A822A822A822B4
S11328D0A822A822A822A822A822A822A822A822A4
S11328E0A822A822A822A822A822A822A822A82294
S11328F0A822A822A822A822A822A822EE26A8223A
S1132900A822A822A822A822A822A822A822A82273
S1132910A822A8224E27A822A822F527A822A82266
S1132920A822A822A822A822A822A822A822A82253
S1132930A822A822A822A822A8220C0C0C0C0C0C59
S11329400C0C0C0C0C0C0C0C0C0C2020202020204B
S1132950202020200C0C0C0C0C0C0C0C0C0C0C0C63
S11329600C0C0C0C0C0C0C0C0C0C0C0C0C0C0C0CA3
S11329700C0C0C0C0C0C0C0C0C0C0C0C0C0C0C0C93
S11329800C0C0C0C0C0C0C0C0C0C0C0C0C0C0C0C83
S11329900C0C0C0C0C0C0C0C0C0C7F7F7F7F3F7F01
S11329A07F7F7B82078406840684078210278E0F2C
S11329B0900D920D9001800881018E018206831092
S11329C08404850E8504850E8504850E8504850E94
S11329D08504850E8504850E8504850E8504850E83
S11329E08504850E8504850E8504850E8504850E73
S11329F08504850E8504841084048214820480185E
S1132A008024801E8215810484118304850E85042C
S1132A10850E8504850E8504850E8504850E850442
S1132A20850E8504850E8504850E8504850E850432
S1132A30850E8504850E8504850E8504850E850422
S1132A40850E85058310830781018E01810B900D0E
S1132A50920D900F8E287F19801D821B8419851971
S1132A608519851985198519851985198519851972
S1132A70851985198519851B831D811E805D811B20
S1132A808319851985198519851985198519851954
S1132A90851985198519851985198519851A831C40
S1132AA0817F24278E0F900D920D9001800C8E0152
S1132AB0821B841985198519851985198519851924
S1132AC0851985198519851985198519851A840A21
S1132AD08E02820892028006960680019407820183
S1132AE09009841A851985198519851985198519F7
S1132AF08519851985198519851985198519851AE1
S1132B00831C81018E0F900D920D900F8E28278EBD
S1132B100F900D920D9001800C8E01821B841985FB
S1132B2019851985198519851985198519851985B1
S1132B3019851985198519851A840A8E02820892C5
S1132B400280069609940C9002811B8319851985CD
S1132B501985198519851985198519851985198581
S1132B6019851985198519851A830B8E01810B9096
S1132B700D920D900F8E287F198008811282068392
S1132B80108404850E8504850E8504850E850485D0
S1132B900E8504850E8504850E8504850E850485C1
S1132BA00E8504850E8504850E8504850E850485B1
S1132BB00E8504850E85048410840482028E0282AC
S1132BC0048002920280069609940C9002811B8371
S1132BD01985198519851985198519851985198501
S1132BE01985198519851985198519851A831C81F3
S1132BF07F24278E0F900D920D900B81018E0B83F5
S1132C001A851985198519851985198519851985CF
S1132C101985198519851985198519841A82028ED1
S1132C200A8002920A9609940C9002811B831985EA
S1132C3019851985198519851985198519851985A0
S1132C40198519851985198519851A830B8E0181B2
S1132C500B900D920D900F8E28278E0F900D920DD4
S1132C60900B81018E0B831A851985198519851995
S1132C708519851985198519851985198519851960
S1132C808519841A82028E0A8002920A96068001AD
S1132C90940782019002810484118304850E8504C3
S1132CA0850E8504850E8504850E8504850E8504B0
S1132CB0850E8504850E8504850E8504850E8504A0
S1132CC0850E8504850E8504850E8504850E850490
S1132CD0850E85058310830781018E01810B900D7C
S1132CE0920D900F8E28278E0F900D920D900180DB
S1132CF00C8E01821B8419851985198519851985FE
S1132D0019851985198519851985198519851985CF
S1132D101A841C821E805D811B831985198519857F
S1132D2019851985198519851985198519851985AF
S1132D301985198519851A831C817F24278E0F9084
S1132D400D920D9001800881018E0182068310840A
S1132D5004850E8504850E8504850E8504850E85FF
S1132D6004850E8504850E8504850E8504850E85EF
S1132D7004850E8504850E8504850E8504850E85DF
S1132D8004850E85048410840482028E02820480E9
S1132D9002920280069606800194078201900281C5
S1132DA00484118304850E8504850E8504850E85AF
S1132DB004850E8504850E8504850E8504850E859F
S1132DC004850E8504850E8504850E8504850E858F
S1132DD004850E8504850E8504850E850583108380
S1132DE00781018E01810B900D920D900F8E282783
S1132DF08E0F900D920D9001800881018E01820644
S1132E0083108404850E8504850E8504850E85044F
S1132E10850E8504850E8504850E8504850E85043E
S1132E20850E8504850E8504850E8504850E85042E
S1132E30850E8504850E85048410840482028E0226
S1132E4082048002920280069609940C9002811BEF
S1132E508319851985198519851985198519851980
S1132E60851985198519851985198519851A830B7D
S1132E708E01810B900D920D900F8E287F1F82077B
S1132E80840684068407827F188207840684068465
S1132E9007827F209A299A299A299A299A299A2974
S1132EA09A299A299A299A299A299A299A299A2906
S1132EB09F299A29AD29562AA32A0E2B772BF22B68
S1132EC0592CE62C3C2DEF2D7C2E9A299A299A29EF
S1132ED09A299A299A299A299A299A299A299A29D6
S1132EE09A299A299A299A299A299A299A299A29C6
S1132EF09A299A299A299A299A299A299A299A29B6
S1132F009A299A299A299A299A299A299A299A29A5
S1132F109A299A299A299A299A299A299A299A2995
S1132F209A299A299A299A299A299A299A299A2985
S1132F309A299A299A299A299A299A299A299A2975
S1132F409A299A299A299A299A299A299A299A2965
S1132F509A299A2900000000000000000008610E70
S1132F60C1071000000000008821210F1A00000092
S1132F7000007A28482230942E3A293000000000BC
S1132F800015EF03038002CF0300C130ED04640396
S1132F901281E803850078CB05392C003402F7014F
S1132FA020EA020000C00123C10110C5023E28C767
S1132FB001863601483A0155B1020018B603088269
S1132FC027F20100260101E00F0F312B0C0E084EF1
S1132FD0F1370710030E0900E10F000E1403110767
S1132FE031C148080F0C31360F11807829000000D8
S1132FF00A0B02090C0D0E0807030401000000006F
S113300000000000000000000000000000000000BC
S11330100000000000000000000012111000000079
S1133020000000000000000000000000000000009C
S11330300000000001021020200808102040102089
S11330404080020102010804020101020408102068
S11330504080804020100804020180040201804066
S113306020100804020108040201010204081020CF
S1133070408001020408102040800505050507056D
S113308008080808020202020A0A080804040404E0
S1133090010101010101010103030303030303030C
S11330A0040707070C0C0C0C0C0C0C0C020202029B
S11330B006060606060606060B0B0B0B0B0B0B0B84
S11330C000002200250028002B002E0031003400CF
S11330D002010000050108010B0100002100240089
S11330E027002A002D0030003300010100000401F4
S11330F007010A0180910907882309F10FB6F894A2
S11331000F92E0910F07F0911007C681D781CE018D
S113311002960E94EA518091FF0681508093FF0637
S1133120809109078150809309070F900FBE8F8902
S1133130988D0E947151CE010E947151DBCF809114
S11331403207823010F00E94BC520E940B51D2CF41
S1133150CF93DF9300D01F921F92CDB7DEB7E091DB
S11331606007F0916107D080DD2031F00580F681A1
S1133170E02DE080F18002C0E12CF12C0E94984DFA
S11331800E949E4D8C018091580790915907081711
S1133190190720F40E94B95081E001C080E0109327
S11331A0590700935807811155C0DD20D9F10E1538
S11331B01F0508F43EC00E94504EE0916007F09154
S11331C061070580F681E02DC680D780C60102968E
S11331D00E94EA51D60152968C91529782FF17C0F1
S11331E01C966D917C911D976E0D7F1D9701A80112
S11331F0C6010E943650882369F000E010E020E008
S113320030E0A70160E0C6010E947D5003C08E7FBC
S1133210F601828BD6015096ED91FC915197C6012F
S113322019951EC0E0915E07F0915F07808141E02F
S1133230811140E0B701601B710B80915C07909194
S11332405D070E94C7550E94504E811109C00E941B
S1133250BC5206C00E94504E03C0898187FF0EC035
S113326040E050E0BE016F5F7F4F80915C0790911A
S11332705D070E9445558111F0CF71CFEC80FD8030
S1133280F70182859385892B21F0C70102960E945C
S1133290EA510E949E4D6C01809158079091590704
S11332A0C816D90610F40E94B950D0925907C0929A
S11332B058078981082E000C990BAA0BBB0B8A3086
S11332C0910570F6FC01D70152969C918827E4522F
S11332D0FF4F8F4F0C9432569160F701928B2A81E5
S11332E03B8164857585620F731FA601C7010E9427
S11332F03650882309F4B4CFD7015096ED91FC9150
S11333005197C7011995F701828982FFA9CF4A8194
S11333105B8184859585480F591F00E010E020E00B
S113332030E060E0C7010E947D509ACF9160F701C0
S1133330928B6A817B81758764876C0D7D1D9601F4
S1133340A601C7010E9436508BCF91FD04C0C7016E
S11333500E94715185CF9E7FD70152969C9380CF56
S11333603E1C491EBA229F23EE458346C622AB2348
S113337011241FBECFEFD1E2DEBFCDBF00E00CBFF2
S113338013E0A0E0B2E0EAEFFCEB00E00BBF02C008
S113339007900D92A43BB107D9F727E0A4EBB3E063
S11333A001C01D92A937B207E1F719E1C6EBD9E1D3
S11333B000E006C021970109802FFE010E943256C9
S11333C0C03BD10780E00807A9F70E94B0460C94DF
S11333D06B5E0C940000CF93DF93CDB7DEB740E073
S11333E050E066EB73E082EF93E001D10000DF91DF
S11333F0CF910895CF93DF93CDB7DEB727970FB65C
S1133400F894DEBF0FBECDBF9F838E8382EF93E01F
S113341019D1982F81E089278823C9F11B821A8248
S113342082EF93E02CD19C018A819B8141E0821739
S1133430930708F040E04423F9F08A819B81BC01A2
S113344082EF93E02ED19D838C838C819D81FC013E
S113345023818E819F81FC01938181E0291709F0EA
S113346080E089838981882331F48A819B81019654
S11334709B838A83D5CF0000998181E089278823A3
S113348031F08E819F81BC0182EF93E028D100004E
S113349027960FB6F894DEBF0FBECDBFDF91CF9154
S11334A00895CF93DF9300D01F921F92CDB7DEB75C
S11334B08D831A82198282EF93E0E1D09C01898185
S11334C09A8141E08217930708F040E04423B1F168
S11334D089819A81BC0182EF93E0E3D09C838B8342
S11334E08B819C81FC0193818D81981709F58981D9
S11334F09A81BC0182EF93E03CD189819A81BC011D
S113350082EF93E0CED09C838B838B819C81FC01E2
S113351013828B819C81FC0112828B819C81FC0132
S1133520118210826AE172E08FEA95E00E94FC4603
S113353089819A8101969A838983BDCF00000F9077
S11335400F900F900F900F90DF91CF910895CF932C
S1133550DF9300D0CDB7DEB78B831A82198282EF56
S113356093E08DD09C0189819A8141E08217930771
S113357008F040E04423B9F089819A81BC0182EFCC
S113358093E08FD0FC01238181E09B81291709F00E
S113359080E0882311F081E007C089819A81019637
S11335A09A838983DCCF80E00F900F900F90DF9196
S11335B0CF910895CF93DF931F921F92CDB7DEB7BB
S11335C09A83898389819A81FC011182108289817D
S11335D09A81FC011382128289819A81FC011582ED
S11335E0148200000F900F90DF91CF910895CF9334
S11335F0DF9300D000D0CDB7DEB79A8389837C8374
S11336006B835E834D8389819A812B813C81FC018C
S11336103183208389819A812FE030E0FC01338358
S1133620228389819A812D813E81FC013583248303
S1133630000026960FB6F894DEBF0FBECDBFDF9113
S1133640CF910895CF93DF931F921F92CDB7DEB72A
S11336509A83898389819A81FC01248135818981B6
S11336609A81FC018281938141E02817390709F08E
S113367040E0842F0F900F90DF91CF910895CF9366
S1133680DF931F921F92CDB7DEB79A838983898116
S11336909A81FC01828193810F900F90DF91CF91E9
S11336A00895CF93DF9300D01F92CDB7DEB79A83EE
S11336B089837C836B8389819A81FC012081318198
S11336C08B819C81880F991F880F991F820F931FEC
S11336D00F900F900F900F90DF91CF910895CF939B
S11336E0DF9300D01F92CDB7DEB79A8389837C83A2
S11336F06B8389819A81FC0180819181892B89F175
S113370089819A81FC012481358189819A81FC0116
S1133710828193812817390720F589819A81FC01D8
S11337202081318189819A81FC0184819581BC0148
S11337306F5F7F4F49815A81FA0175836483880FD3
S1133740991F880F991F280F391F8B819C81FC01B9
S113375080819181A281B381F90180839183A283C5
S1133760B38300000F900F900F900F90DF91CF91D3
S11337700895CF93DF9300D000D0CDB7DEB79C83FC
S11337808B837E836D838B819C81FC0124813581B5
S11337908D819E818217930708F049C08D819E8197
S11337A09A8389838B819C81FC01848195819C010E
S11337B02150310989819A818217930758F58B81A9
S11337C09C81FC012081318189819A81880F991F14
S11337D0880F991F280F391F8B819C81FC01408120
S11337E0518189819A810196880F991F880F991FA9
S11337F0840F951FFC0180819181A281B381F9011D
S113380080839183A283B38389819A8101969A8369
S11338108983C8CF8B819C81FC01848195819C0123
S1133820215031098B819C81FC0135832483000064
S113383026960FB6F894DEBF0FBECDBFDF91CF91B1
S11338400895CF93DF9300D01F92CDB7DEB79A834C
S113385089837C836B8389819A81019739F48B8175
S11338609C81019619F482EF93E0A4DE00000F908E
S11338700F900F900F90DF91CF910895CF93DF9326
S1133880CDB7DEB76FEF7FEF81E090E0DADFDF9155
S1133890CF910895CF93DF931F921F92CDB7DEB7D8
S11338A09A8389838091F8039091F903892B31F4E9
S11338B089819A819093F9038093F80300000F9013
S11338C00F90DF91CF910895CF93DF931F921F92B2
S11338D0CDB7DEB79A8389838AEF93E00E94CB2920
S11338E060E070E08AEF93E00E94B42A63E08AEF1C
S11338F093E00E94443100000F900F90DF91CF912C
S113390008950F931F93CF93DF93CDB7DEB7AB9793
S11339100FB6F894DEBF0FBECDBF9FA38EA348A7FA
S113392059A76AA77BA72EA13FA188A599A5AAA5F7
S1133930BBA5F90181839283A383B4832AE0CE01DA
S11339400396FC01322F11923A95E9F72AE0CE0151
S11339500D96FC01322F11923A95E9F72AE0CE0137
S11339604796FC01322F11923A95E9F725E0CE01F2
S11339708196FC01322F11923A95E9F728EE33E053
S113398040E050E060E070E0CB010E94DE4BDC01DF
S1133990CB012B2F2F932A2F2F93292F2F938F93E4
S11339A08BE192E0892F8F938BE192E08F93CE018C
S11339B08196292F2F938F930E942A598DB79EB7F2
S11339C008960FB6F894DEBF0FBECDBF1A821982D7
S11339D089819A81049754F59E012F5D3F4F898117
S11339E09A81820F931FFC0140819E01235F3F4F08
S11339F089819A81820F931FFC0140839E012F5D70
S1133A003F4F89819A81820F931FFC0140819E015F
S1133A10295E3F4F89819A81820F931FFC01408365
S1133A2089819A8101969A838983D2CF8EA19FA19D
S1133A30FC0181819281A381B4819E012D5F3F4F5E
S1133A40890123E045E0BC01CD010E94675681E075
S1133A507EDD882321F482E07ADD882311F081E081
S1133A6001C080E08823C1F040E050E060E078EFDE
S1133A708AEF93E00E94E62A04E010E020E030E0C0
S1133A8040E050E06EE172E08AEF93E00E948F3EE6
S1133A9081E080931F044BC080911F048823B9F0F8
S1133AA010921F0440E050E060EE77E08AEF93E06C
S1133AB00E94E62A04E010E020E030E040E050E01C
S1133AC066E472E08AEF93E00E948F3E30C040E0EB
S1133AD050E060EE77E08AEF93E00E94E62A04E08B
S1133AE010E020E030E040E050E069E672E08AEF68
S1133AF093E00E948F3ECE01039604E010E020E0A4
S1133B0030E046E950E0BC018AEF93E00E948F3E2A
S1133B108885882361F404E010E020E030E045ED7E
S1133B2050E065E772E08AEF93E00E948F3E40E048
S1133B3050E060EE77E08AEF93E00E94E62A04E02A
S1133B4010E029E130E040E050E06CE772E08AEFF9
S1133B5093E00E948F3ECE010D9604E010E029E12F
S1133B6030E046E950E0BC018AEF93E00E948F3ECA
S1133B708E85882361F404E010E029E130E045EA11
S1133B8050E069E872E08AEF93E00E948F3E8F85EF
S1133B90882361F404E010E029E130E042EB50E0D6
S1133BA069E872E08AEF93E00E948F3E04E010E03F
S1133BB022E330E040E050E06EE872E08AEF93E008
S1133BC00E948F3ECE01479604E010E022E330E0ED
S1133BD046E950E0BC018AEF93E00E948F3E888D55
S1133BE0882361F404E010E022E330E045EA50E089
S1133BF069E872E08AEF93E00E948F3E898D882302
S1133C0061F404E010E022E330E042EB50E069E8C4
S1133C1072E08AEF93E00E948F3E0000AB960FB6ED
S1133C20F894DEBF0FBECDBFDF91CF911F910F91EE
S1133C300895CF93DF931F921F92CDB7DEB79A8377
S1133C40898300000F900F90DF91CF910895CF9357
S1133C50DF9300D01F92CDB7DEB79A8389837C832C
S1133C606B8389819A81019761F48B819C81019690
S1133C7041F440E451E060EF70E08AEF93E00E9489
S1133C806C2800000F900F900F900F90DF91CF9150
S1133C900895CF93DF93CDB7DEB76FEF7FEF81E069
S1133CA090E0D5DFDF91CF910895CF93DF9300D0DB
S1133CB000D0CDB7DEB79A8389834B835C836D8351
S1133CC07E838B819C81AD81BE81E981FA8126E06E
S1133CD0AC01BD01CF010E942145000026960FB61C
S1133CE0F894DEBF0FBECDBFDF91CF910895CF937F
S1133CF0DF931F921F92CDB7DEB79A8389838981A0
S1133D009A81FC01108289819A81FC011182898146
S1133D109A812BE230E0FC013383228389819A81EA
S1133D202AE230E0FC013583248389819A8129E2E7
S1133D3030E0FC013783268389819A81FC01118656
S1133D4010868091200490912104892B31F489817B
S1133D509A81909321048093200400000F900F9087
S1133D60DF91CF910895CF93DF931F921F92CDB728
S1133D70DEB79A83898389819A81FC018281938148
S1133D8061E00E945A4B89819A81FC01848195816A
S1133D9061E00E945A4B89819A81FC018681978156
S1133DA061E00E945A4B40E052EC61E070E08CE428
S1133DB096E07BDF42E350E060E070E08CE496E064
S1133DC00E94E84700000F900F90DF91CF91089573
S1133DD0CF93DF93CDB7DEB7C054D1090FB6F894B3
S1133DE0DEBF0FBECDBF9EAF8DAFCE01CF96FC011F
S1133DF071836083CE01CF96FC01208131818DAD2A
S1133E009EADB9011CD0CE01CF96FC018081918179
S1133E109E012F5F3F4FB90138D3CE010196BC01FB
S1133E208CE496E00E9407470000C05CDF4F0FB6A9
S1133E30F894DEBF0FBECDBFDF91CF910895CF932D
S1133E40DF9300D01F92CDB7DEB79A8389837C833A
S1133E506B838B819C81FC01808191819C01898190
S1133E609A81FC013187208789819A81FC018085B0
S1133E709185181619063CF489819A81FC01808584
S1133E80918509973CF089819A8121E030E0FC0119
S1133E903187208789819A81FC01808591859C01E5
S1133EA02150310989819A81FC01318720878981D8
S1133EB09A81FC0180859185282F217089819A81BE
S1133EC0FC0182819381622F0E94964B89819A81A1
S1133ED0FC018085918595958795282F217089818E
S1133EE09A81FC0184819581622F0E94964B89817D
S1133EF09A81FC01808591859595879595958795FF
S1133F00282F217089819A81FC0186819781622FF3
S1133F100E94964B62E070E080E090E00E94694A63
S1133F2000000F900F900F900F90DF91CF910895A4
S1133F30CF93DF931F921F92CDB7DEB79A83898305
S1133F4000000F900F90DF91CF910895CF93DF93EE
S1133F501F921F92CDB7DEB79A83898389819A8194
S1133F60FC01108289819A81FC01118289819A81E4
S1133F702CE30296FC01322F11923A95E9F78981DC
S1133F809A818C5B9F4F2CE3FC01322F11923A955E
S1133F90E9F78091220490912304892B31F48981DB
S1133FA09A81909323048093220400000F900F9031
S1133FB0DF91CF910895CF93DF931F921F92CDB7D6
S1133FC0DEB79A83898384E294E0CDDE00000F900B
S1133FD00F90DF91CF910895CF93DF931F921F929B
S1133FE0CDB7DEB79A83898389819A8140E050E016
S1133FF06FEA75E00DD089819A8141E050E06CE46C
S113400076E006D000000F900F90DF91CF910895D5
S1134010CF93DF93CDB7DEB72E970FB6F894DEBFFC
S11340200FBECDBF9A8789877C876B875E874D8754
S11340301E821D821C821B8218861F828B859C8592
S1134040FC01808191810896FC01208131818B855E
S11340509C85F901199521E0181619060CF020E049
S1134060222309F45BC01A82198289819A81CC9730
S11340707CF429853A8589819A81820F931F02965F
S1134080FC01108289819A8101969A838983EDCFFC
S113409089859A85AC014E5F5F4F8B859C852CE3A7
S11340A030E06AE00E94EE47282F89859A85FC015A
S11340B0218389859A85FC018181882F90E0298557
S11340C03A85820F931F0296FC0110828B859C8592
S11340D0FC01808191810896FC01208131818B85CE
S11340E09C85F901199521E0892B09F420E022230C
S11340F0A9F08B859C85FC01808191810A96FC0145
S1134100208131818B859C85F90119954AE050E025
S1134110BC018FEA95E00E94AA47D8CF89859A8589
S1134120FC018181882319F189859A85AC014E5F50
S11341305F4F9E012D5F3F4F89859A85B90122D03B
S113414089859A85FC0111828D859E85892B41F490
S11341509E012D5F3F4F89859A85B901F7D007C02D
S11341609E012D5F3F4F89859A85B9012CD181E04D
S113417090E02E960FB6F894DEBF0FBECDBFDF9150
S1134180CF910895CF93DF93CDB7DEB7C454D1094F
S11341900FB6F894DEBF0FBECDBF9E01215C3F4F2A
S11341A0F90191838083CE018F5B9F4FFC01718362
S11341B06083CE018D5B9F4FFC01518340832CE3D0
S11341C0CE010396FC01322F11923A95E9F7CE0104
S11341D08D5B9F4FFC0120813181CE010396B90193
S11341E00E94A658CE018D5B9F4FFC018081918176
S11341F06BE972E00E948A589C01CE01CF96FC01C3
S113420080819181FC0137AF26AF6BE972E080E0D9
S113421090E00E948A589C01CE01CF96FC018081D7
S11342209181805C9F4FFC01318320836BE972E0B4
S113423080E090E00E948A589C01CE01CF96FC0158
S1134240808191818E5B9F4FFC01318320831A8290
S11342501982CE01CF96FC0180819181FC0126ADAB
S113426037AD89819A81820F931FFC018081882355
S113427039F1CE01CF96FC0180819181FC0126ADFC
S113428037AD89819A81820F931FFC018081882F29
S113429090E0C0970A9710F081E001C080E0882385
S11342A049F06DE972E08FEA95E00E94074780E0EB
S11342B090E042C089819A8101969A838983C9CF0B
S11342C0CE01CF96FC0180819181FC0186AD97AD32
S11342D00E9447589C01CE018F5B9F4FFC01808157
S11342E09181FC0131832083CE01CF96FC01808132
S11342F09181805C9F4FFC0120813181CE018F5BD5
S11343009F4FFC0180819181FC0133832283CE0184
S1134310CF96FC01808191818E5B9F4FFC012081AF
S11343203181CE018F5B9F4FFC0180819181FC0123
S11343303583248381E090E0CC5BDF4F0FB6F894A3
S1134340DEBF0FBECDBFDF91CF910895CF93DF9332
S113435000D01F92CDB7DEB79A8389837C836B83A9
S11343608B819C81FC012081318184E690E02817B7
S1134370390731F42B813C8189819A81B90159D063
S11343808B819C81FC018081918120E030E02817A1
S1134390390780F48B819C81FC012081318184E682
S11343A090E02817390730F48B819C81BC0184E2AA
S11343B094E00EDD81E090E00F900F900F900F904D
S11343C0DF91CF910895CF93DF93CDB7DEB7C0547B
S11343D0D1090FB6F894DEBF0FBECDBF9EAF8DAF2F
S11343E0CE01CF96FC01718360832CE3CE0101964C
S11343F0FC01322F11923A95E9F7CE01CF96FC01D8
S1134400808191819E012F5F3F4FB9013ED0CE0143
S11344100196BC018FEA95E00E9407470000C05C4A
S1134420DF4F0FB6F894DEBF0FBECDBFDF91CF9143
S11344300895CF93DF9300D01F92CDB7DEB79A8350
S113444089837C836B838B819C81FC018281938132
S113445068EC72E00E949D58892B79F48B819C81D1
S1134460FC01848195816BED72E00E949D5821E0EE
S1134470892B09F020E02093720400000F900F9024
S11344800F900F90DF91CF910895CF93DF9300D0D9
S11344901F92CDB7DEB79A8389837C836B8389812E
S11344A09A81FC014481558189819A81FC01228190
S11344B0338189819A81FC0180819181652F6F9379
S11344C04F93432F4F932F93292F2F938F9380EE46
S11344D092E0892F8F9380EE92E08F938C818F935B
S11344E08B818F930E942A598DB79EB70A960FB677
S11344F0F894DEBF0FBECDBF00000F900F900F9059
S11345000F90DF91CF910895CF93DF931F921F9265
S1134510CDB7DEB79A83898300000F900F90DF91A7
S1134520CF910895CF93DF9300D01F92CDB7DEB71C
S11345309A8389837C836B8389819A81019739F477
S11345408B819C81019619F484E294E0D0DB89810B
S11345509A81892B39F48B819C81019619F484E228
S113456094E0E6DC00000F900F900F900F90DF9125
S1134570CF910895CF93DF93CDB7DEB76FEF7FEF81
S113458081E090E0CFDFDF91CF910895CF93DF9367
S1134590CDB7DEB76FEF7FEF80E090E0C3DFDF9150
S11345A0CF910895EF92FF920F93CF93DF93CDB7FE
S11345B0DEB740E052EC61E070E08FEA95E075DB35
S11345C083E794E0FFD089EB94E07ED98EEB94E00E
S11345D0F2DC0E94EB19E12CF12C01E020E030E048
S11345E048EE53E064EF72E081E293E20E94724C81
S11345F0E12CF12C02E020E030E044EF51E06EEFDA
S113460072E08CE393E20E94724CE12CF12C02E004
S113461020E030E048EE53E067E073E08BE593E29E
S11346200E94724C0000DF91CF910F91FF90EF90A8
S11346300895CF93DF93CDB7DEB70000DF91CF911C
S11346400895CF93DF931F921F92CDB7DEB79A835D
S11346508983809172048093B90483E794E001D440
S1134660DC01CB01AC01BD0189EB94E04AD983E0C4
S113467090E00E94B94EEDCFCF93DF931F921F922B
S1134680CDB7DEB79A83898380917404882359F067
S113469083E794E0D2D3BC018FEA95E00E940747F8
S11346A01092740403C083E794E034D181E090E075
S11346B00E94B94EE9CFCF93DF931F921F92CDB7DB
S11346C0DEB79A8389838EEB94E086DC86E090E003
S11346D00E94B94EF8CFCF93DF9300D01F92CDB78D
S11346E0DEB79A8389837C836B8389819A8101975E
S11346F069F48B819C81019649F483E794E037D077
S113470089EB94E0C7D88EEB94E020DC89819A8110
S1134710892B69F48B819C81019649F48EEB94E09A
S1134720F3DE89EB94E085DA83E794E024D4000097
S11347300F900F900F900F90DF91CF910895CF932A
S1134740DF93CDB7DEB76FEF7FEF81E090E0C3DF9B
S1134750DF91CF910895CF93DF93CDB7DEB76FEF9D
S11347607FEF80E090E0B7DFDF91CF910895CF93A2
S1134770DF931F921F92CDB7DEB79A838983898115
S11347809A81FC01108289819A81FC0111828981BC
S11347909A812CE30296FC01322F11923A95E9F7A3
S11347A080913E0590913F05892B31F489819A814E
S11347B090933F0580933E0500000F900F90DF918A
S11347C0CF910895CF93DF931F921F92CDB7DEB799
S11347D09A83898361E08EE10E945A4B62E082E011
S11347E00E945A4B62E08CE10E945A4B61E08EE1D8
S11347F00E94964B42E050E067E074E280E00E9441
S1134800224800000F900F90DF91CF910895CF932D
S1134810DF93CDB7DEB728970FB6F894DEBF0FBE8F
S1134820CDBF81E080934005809176059091770516
S11348309C012F5F3F4F309377052093760520E24C
S113484030E0F901408120E530E33C832B832B8168
S11348503C81F90124912D832D812423222311F4F9
S113486020E301C021E38F5B9A4FFC0120838091F8
S113487076059091770521E0C4970CF420E022237B
S113488009F43EC082E590E39F838E838E819F81ED
S1134890FC01849188878885882F90E0AC0140953D
S11348A0509588E290E028E230E0F9012081322F2F
S11348B0242F2323FC012083109277051092760580
S11348C01A82198289819A81C497C4F489819A8150
S11348D08F5B9A4FFC01208189819A8186589A4F77
S11348E0FC01208389819A818F5B9A4FFC0110829D
S11348F089819A8101969A838983E4CF1092400535
S1134900000028960FB6F894DEBF0FBECDBFDF912E
S1134910CF9108950F931F93CF93DF93CDB7DEB755
S1134920C658D1090FB6F894DEBF0FBECDBF9E01A5
S11349302B573F4FF90191838083CE018B579F4FB3
S1134940FC0180819181FC018081882341F0CE01AA
S11349508B579F4FFC01808191819BD262C28091D1
S11349607605909177059C01265F3F4F80917805ED
S11349709091790541E0281739070CF040E0442371
S113498009F45DC0CE018B579F4FFC01808191815A
S1134990FC0117AE16AECE018B579F4FFC018081F0
S11349A09181805C9F4F22E0FC012083CE018B57D4
S11349B09F4FFC01808191818F5B9F4F21E0FC011F
S11349C02083CE018B579F4FFC0180819181CE962D
S11349D00E94FA1982E590E39B8B8A8B8A899B89D2
S11349E0FC0184918C8B8C89882F90E0AC014095DC
S11349F0509588E290E028E230E0F9012081322FDE
S1134A00242F2323FC01208382E590E39E8B8D8B4E
S1134A108D899E89FC0184918F8B4F8988E290E077
S1134A2028E230E0F9012081242BFC01208310923C
S1134A307705109276051092790510927805809189
S1134A40780590917905019690937905809378057E
S1134A509091400581E08927882309F4E2C180917F
S1134A607A05882309F4DCC119821B821A828A819F
S1134A709B810C9708F062C08A819B8186589A4F6B
S1134A80FC018081803309F051C0198218A21F8E65
S1134A908BE193E09AA389A385E293E09CA38BA383
S1134AA0CE018B579F4FFC0180819181FC0117AE91
S1134AB016AECE018B579F4FFC0180819181805CA3
S1134AC09F4F21E0FC012083CE018B579F4FFC01B7
S1134AD0808191818F5B9F4F22E0FC012083CE0176
S1134AE08B579F4FFC0180819181CE960E94FA19C9
S1134AF0CE01875B9F4F2CE3FC01322F11923A9534
S1134B00E9F79E01275B3F4FCE014F96B901BDDC0B
S1134B10CE01875B9F4FBC018FEA95E00E94074757
S1134B201092770510927605000008C081E0898311
S1134B308A819B8101969B838A8399CF898188236B
S1134B4009F46FC181E00E94511A82E00E94511A57
S1134B502DE0CE018596FC01322F11923A95E9F7AA
S1134B601D821C828C819D810D970CF076C08C81F6
S1134B709D810196880F991F880F991F998F888F9F
S1134B801F821E828C819D81880F991F880F991F17
S1134B909987888728853985888D998D28173907BD
S1134BA00CF055C08885998586589A4FFC01808100
S1134BB0813309F59E012B5D3F4F8C819D81820FCE
S1134BC0931FFC01208181E090E0A0E0B0E00E8022
S1134BD004C0880F991FAA1FBB1F0A94D2F7422F43
S1134BE0482B9E012B5D3F4F8C819D81820F931F2B
S1134BF0FC01408321C09E012B5D3F4F8C819D8130
S1134C00820F931FFC01208181E090E0A0E0B0E0DE
S1134C100E8004C0880F991FAA1FBB1F0A94D2F7E5
S1134C208095422F48239E012B5D3F4F8C819D81AF
S1134C30820F931FFC0140838E819F8101969F8385
S1134C408E8388859985019699878887A3CF8C81DF
S1134C509D8101969D838C8385CF1A861B861C8635
S1134C601D861F861E868E859F85069764F58E8514
S1134C709F8505969E012B5D3F4F820F931FFC017C
S1134C80808140E3480F9E012E5C3F4F8E859F85B7
S1134C90820F931FFC01408318AECE01C2960E947E
S1134CA06458DC01CB01BC01CD010E94CD41DC0183
S1134CB0CB018A879B87AC87BD878E859F850196AC
S1134CC09F878E87D0CF88A9882F90E09B8F8A8F6B
S1134CD08A8D9B8D092E000CAA0BBB0BBC01CD0148
S1134CE00E94CD41DC01CB019C01AD0160E070E08C
S1134CF080E291E40E94BC42DC01CB019C01AD0145
S1134D006A857B858C859D850E946341DC01CB018E
S1134D109E012B573F4FF901208131812E5B3F4F7C
S1134D20F90180839183A283B3832AE0CE01C996DB
S1134D30FC01322F11923A95E9F7CE018B579F4F20
S1134D40FC01808191818E5B9F4FFC018081918168
S1134D50A281B3819E01275C3F4F890123E045E096
S1134D60BC01CD010E946756CE018D5B9F4FFC01B3
S1134D7011821082CE018D5B9F4F2BE133E0FC0149
S1134D8033832283CE018D5B9F4F9E01275C3F4F6F
S1134D90FC0135832483CE018B579F4FFC01808116
S1134DA091819C012E5F3F4FCE018D5B9F4FB901D6
S1134DB06CDBCE018B579F4FFC018081918121E0F8
S1134DC0FC012183198A188A88899989C49764F413
S1134DD08889998986589A4FFC0110828889998913
S1134DE00196998B888BF0CF809176059091770509
S1134DF0909379058093780582E590E39D8F8C8F5D
S1134E008C8D9D8DFC0184918E8F4E8D88E290E077
S1134E1028E230E0F9012081242BFC01208301C029
S1134E200000CA57DF4F0FB6F894DEBF0FBECDBFE8
S1134E30DF91CF911F910F910895CF93DF931F922C
S1134E401F92CDB7DEB79A83898389819A81FC0149
S1134E50118289819A8102960F900F90DF91CF91F0
S1134E600895CF93DF931F921F92CDB7DEB79A8335
S1134E70898389819A818E5B9F4FFC018081918116
S1134E80A281B381BC01CD010F900F90DF91CF912E
S1134E900895EF92FF920F931F93CF93DF93CDB7B3
S1134EA0DEB72B970FB6F894DEBF0FBECDBF9B873E
S1134EB08A8720E536E440E050E068E672E480E06A
S1134EC090E00E94DE4B7B018C01CE0105962AE026
S1134ED030E0AC01C801B7010E94D45869E473E022
S1134EE08FEA95E00E94FC461A82198289819A8190
S1134EF0059764F51C821B828B819C81049704F5C1
S1134F009E012B5F3F4F89819A81820F931FFC0181
S1134F108081882F90E00B8002C0959587950A9434
S1134F20E2F7817099274AE050E0BC018FEA95E0EE
S1134F300E94A4478B819C8101969C838B83DCCF48
S1134F4089819A8101969A838983D0CF64E673E03C
S1134F508FEA95E00E94074780E090E02B960FB619
S1134F60F894DEBF0FBECDBFDF91CF911F910F919B
S1134F70FF90EF900895CF93DF931F921F92CDB7C8
S1134F80DEB79A83898300000F900F90DF91CF9151
S1134F900895CF93DF931F921F92CDB7DEB79A8304
S1134FA089832EE933E089819A81FC01318320834E
S1134FB089819A81FC011382128200000F900F9064
S1134FC0DF91CF910895CF93DF931F921F92CDB7B6
S1134FD0DEB79A83898380E090E00F900F90DF9191
S1134FE0CF910895CF93DF931F921F92CDB7DEB771
S1134FF09A83898300000F900F90DF91CF910895D9
S1135000CF93DF93CDB7DEB78BE091E0DF91CF9103
S11350100895CF93DF931F92CDB7DEB7898389813B
S1135020882351F48CE490E02CE430E0F9012081F1
S11350302062FC01208309C08CE490E02CE430E081
S1135040F90120812F7DFC01208300000F90DF9166
S1135050CF910895CF93DF931F92CDB7DEB78983A5
S11350608CE490E02CE430E0F9012081322F337F8E
S11350702981232BFC01208300000F90DF91CF9125
S11350800895CF93DF931F92CDB7DEB789838CE465
S113509090E02CE430E0F9012081322F3C7F29811B
S11350A02370232BFC0120838DE490E02DE430E079
S11350B0F9012081422F4E7F2981222F30E035953E
S11350C02795359527952170242BFC01208300001A
S11350D00F90DF91CF910895CF93DF9300D000D04C
S11350E0CDB7DEB79A8389837C836B835E834D83DC
S11350F089819A814EDF21E733E089819A81FC011D
S11351003183208360E08CE20E94964B61E08CE264
S11351100E945A4B75DFFC0120812260FC01208330
S113512061E080E30E945A4B6BDFFC012081246024
S1135130FC01208361E08FE20E945A4B2B813C8169
S113514089819A81FC01338B228B2D813E81898157
S11351509A81FC01358B248B89819A81FC0113A2ED
S113516089819A81FC011186108689819A81FC01CA
S11351702085318589819A81FC0133872287898141
S11351809A8121E0FC0120A389819A8121E0FC011C
S113519021A389819A812FEF3FEFFC01378B268B66
S11351A089819A81FC01118E108E89819A81FC017A
S11351B0118A108A89819A8121E0FC0124A38981C2
S11351C09A81FC0112A289819A81FC01138E128EAC
S11351D089819A812FEF3FEFFC01358F248F8981DC
S11351E09A812FEF3FEFFC01378F268F89819A81B7
S11351F02FEF3FEFFC013587248789819A812FEFB8
S11352003FEFFC013787268789819A8122E030E0CD
S1135210FC01338F228F89819A81FC01828D938DC9
S11352209C01246089819A81FC01338F228F8981BA
S11352309A81FC01828D938D9C01206189819A81E0
S1135240FC01338F228F89819A81FC01828D938D99
S11352509C01206489819A81FC01338F228F89818A
S11352609A81FC01828D938D9C01206889819A81A9
S1135270FC01338F228F000026960FB6F894DEBF10
S11352800FBECDBFDF91CF910895CF93DF9300D0B0
S11352901F92CDB7DEB79B838A836C838CE490E046
S11352A0FC01808189838CE490E02A813B81F901AF
S11352B02681FC0120838EE490E02C81FC01208374
S11352C000008DE490E0FC0180818095881F882790
S11352D0881F882309F0F5CF8CE490E02981FC0134
S11352E0208300000F900F900F900F90DF91CF91CB
S11352F00895CF93DF9300D0CDB7DEB79A83898327
S11353006B838DE490E0FC01208189819A81FC010A
S1135310278376DEFC0120812D7FFC01208370DE53
S1135320FC0120812B7FFC01208389819A816B8180
S1135330ACDF66DEFC0120812460FC0120830000D8
S11353400F900F900F90DF91CF910895CF93DF933B
S113535000D0CDB7DEB79A8389836B8351DEFC011D
S113536020812260FC0120834BDEFC0120812B7F05
S1135370FC01208389819A816B8187DF41DEFC01F6
S113538020812460FC01208300000F900F900F9077
S1135390DF91CF910895CF93DF931F921F92CDB7E2
S11353A0DEB79A8389830E942E518CE490E0FC013D
S11353B0208189819A81FC01278384E062DE81E077
S11353C028DE80E047DE8CE490E0FC0120818981C6
S11353D09A81FC01268361E08CE20E94964B65E091
S11353E070E080E090E00E94694A60E08CE20E94F4
S11353F0964B64E170E080E090E00E94694A61E0CD
S11354008CE20E94964B66E970E080E090E00E9496
S1135410694A89819A8161E87FE206D000000F9091
S11354200F90DF91CF910895CF93DF93CDB7DEB77F
S113543066970FB6F894DEBF0FBECDBF9C8B8B8BE7
S11354407E8B6D8B8D899E899C012F5F3F4F3E8B98
S11354502D8B9C838B838B819C81FC0184918D8318
S11354608D81898389819FEF980F998391E08823A7
S113547009F490E0992309F46DC08D899E899C01FB
S11354802F5F3F4F3E8B2D8B9F838E838E819F8119
S1135490FC018491888728858B899C89622F29DF68
S11354A08D899E899C012F5F3F4F3E8B2D8B9A8760
S11354B0898789859A85FC0184918B878B858A836A
S11354C08A8180788C878A818F778A838A819FEF0B
S11354D0980F9A8391E0882309F490E09923A1F02E
S11354E08D899E899C012F5F3F4F3E8B2D8B9E871C
S11354F08D878D859E85FC0184918F872F858B896F
S11355009C89622F23DFE2CF8C85882309F4AACFFC
S11355108D899E899C012F5F3F4F3E8B2D8B998BEC
S1135520888B88899989FC0184918A8B8A898C87E4
S11355308C858F3F31F08C85882F90E0A0E0B0E01F
S113554004C084EF91E0A0E0B0E0BC01CD010E9472
S1135550694A88CF000066960FB6F894DEBF0FBE86
S1135560CDBFDF91CF910895EF92FF920F931F93D8
S1135570CF93DF9300D01F92CDB7DEB79A83898390
S11355807C836B8389819A81FC0184899589BC0120
S113559089819A81FC0182899389AC012B813C81A8
S11355A089819A8179018B019A0140E050E060E0A1
S11355B070E0F1D500000F900F900F900F90DF91E5
S11355C0CF911F910F91FF90EF900895CF93DF93A8
S11355D000D000D0CDB7DEB79A8389837C836B83F8
S11355E05E834D8389819A812B813C81FC01378BB9
S11355F0268B89819A812D813E81FC01318F208FF8
S1135600000026960FB6F894DEBF0FBECDBFDF9123
S1135610CF910895CF93DF93CDB7DEB762970FB6DE
S1135620F894DEBF0FBECDBF9E878D87788B6F87C2
S11356305A8B498B1A82198289899A89029714F1A3
S113564089899A890997F4F429893A89C901880FC3
S1135650991F880F991F820F931F02968C5A904DA1
S11356609C838B838B819C81FC0125913491CF0198
S11356703E832D839C838B838D819E818097988725
S11356808F8303C080E090E042C08F859889FC013D
S11356908081882361F18F8598899C012F5F3F4F1A
S11356A0388B2F87FC018081898789899A890197A2
S11356B031F489819A8106969A838983E6CF898514
S11356C0882F90E02F813885820F931F9B878A87CC
S11356D08A859B85FC0184918C878C85882F90E03A
S11356E029813A81820F931F9A838983CECF8D8536
S11356F09E85FC0181A1282F30E089819A81289F11
S1135700A001299F500D389F500D1124CA016296A3
S11357100FB6F894DEBF0FBECDBFDF91CF910895D1
S1135720CF92EF92FF920F931F93CF93DF93CDB756
S1135730DEB7A1970FB6F894DEBF0FBECDBF9F8B27
S11357408E8B798F688F5B8F4A8F2C8F1E8F0D8F76
S1135750F8A2EF8EC9A28E899F89FC018289938960
S11357609C01888D998D821793070CF004C28E8951
S11357709F89FC01848995899C018A8D9B8D821760
S113578093070CF0F8C189A1282F30E0C901880FD4
S1135790991F820F931F880F991F9C01888D998DE3
S11357A0820F931F019799230CF4E5C189A1882FD7
S11357B090E09C01220F331F220F331F220F331F4F
S11357C08A8D9B8D820F931F019799230CF4D3C16B
S11357D041E02F8D38A18D8D9E8D2817390709F44E
S11357E040E0498789A1813009F0E9C0898588238F
S11357F009F4E5C081E089838A8D9B8DFC0138968C
S1135800888D998D9C012B5F3F4F4A8D5B8D688DF0
S1135810798D8E899F898F01BDD11A828A818530C5
S11358205CF58A81082E000C990B9E01205F3F4F86
S1135830A901480F591F8C8D282F30E0C901880F0A
S1135840991F880F991F820F931F9C018A81082E2C
S1135850000C990B820F931F8A539D4F9B878A8755
S11358608A859B85FC0184918C878C85FA018083D1
S11358708A818F5F8A83D2CF1D8A1B828B81883075
S11358800CF08BC01C828C8185300CF05CC08C8148
S1135890082E000C990B9E01205F3F4F820F931F2F
S11358A0FC01908189818923882329F18DE490E08A
S11358B0FC0180818095881F8827881F882309F030
S11358C0F5CF8EE490E02D8D3E8D232F3327FC0100
S11358D0208300008DE490E0FC0180818095881F86
S11358E08827881F882309F0F5CF8EE490E02D8D5A
S11358F0FC01208324C08DE490E0FC01808180952C
S1135900881F8827881F882309F0F5CF8EE490E04C
S11359102F8D38A1232F3327FC01208300008DE431
S113592090E0FC0180818095881F8827881F882348
S113593009F0F5CF8EE490E02F8DFC0120838C815B
S11359408F5F8C83A0CF8981880F89838DE490E059
S1135950FC0180818095881F8827881F882309F08F
S1135960F5CF8EE490E02F8D38A1232F3327FC014F
S113597020838DE490E0FC0180818095881F882736
S1135980881F882309F0F5CF8EE490E02F8DFC0169
S113599020838B818F5F8B8371CF8DE490E0FC013A
S11359A080818095881F8827881F882309F0F5CF78
S11359B027DBFC0120812460FC012083DDC01D82E3
S11359C08D8186300CF0D8C08D81853011F41E8213
S11359D01CC08C8D282F30E0C901880F991F880FB7
S11359E0991F820F931F9C018D81082E000C990B27
S11359F0820F931F8A539D4F9E878D878D859E8529
S1135A00FC0184918F878F858E8389A1813069F50C
S1135A101F828F8188300CF0AAC08E81882F90E07D
S1135A2081709927892BB9F08F81282F880F330B28
S1135A308A8D9B8D820F931FAC018D81282F880F37
S1135A40330B888D998D820F931FBC012D8D3E8D54
S1135A508E899F89A0D18E81882F90E09595879516
S1135A608E838F818F5F8F83D4CF1886888588300B
S1135A700CF07DC08E81882F90E081709927892B4E
S1135A80A9F189A1082F10E089A1A82FB0E0888589
S1135A90482F880F550B89A1882F90E0489F9001CB
S1135AA0499F300D589F300D11248A8D9B8DF9012B
S1135AB0E80FF91F8D81482F880F550B89A1882F76
S1135AC090E0489F9001499F300D589F300D11245C
S1135AD0888D998DB901680F791F2D8D3E8D8E8922
S1135AE09F8979019D01AF0156D337C089858823E9
S1135AF0A1F189A1082F10E089A1A82FB0E0888521
S1135B00482F880F550B89A1882F90E0489F90015A
S1135B10499F300D589F300D11248A8D9B8DF901BA
S1135B20E80FF91F8D81482F880F550B89A1882F05
S1135B3090E0489F9001499F300D589F300D1124EB
S1135B40888D998DB901680F791F2F8D38A18E89A1
S1135B509F8979019D01AF011ED38E81882F90E02A
S1135B60959587958E8388858F5F88877FCF8D8174
S1135B708F5F8D8325CF0000A1960FB6F894DEBF0A
S1135B800FBECDBFDF91CF911F910F91FF90EF908A
S1135B90CF9008950F931F93CF93DF93CDB7DEB7C4
S1135BA02A970FB6F894DEBF0FBECDBF9A838983C0
S1135BB07C836B835E834D8338872F831A870987A1
S1135BC01FDAFC0120812D7FFC01208319DAFC01FE
S1135BD020812B7FFC0120838EE490E02AE2FC01EB
S1135BE0208300960096009601D001C0089508DA3B
S1135BF0FC0120812260FC0120838EE490E02B8153
S1135C003C81232F330F330BFC01208300000096CB
S1135C1001D001C0089589819A812FEF3FEFFC01E3
S1135C20378F268F8EE490E02B81FC0120830000C7
S1135C30009601D001C0089589819A81FC012485D0
S1135C4035858F8198852817390709F18EE490E00E
S1135C502F813885232F330F330BFC012083000061
S1135C60009601D001C00895000089819A812F8196
S1135C703885FC01358724878EE490E02F81FC0170
S1135C80208300000096009601D001C00895B8D981
S1135C90FC0120812D7FFC0120838EE490E02BE227
S1135CA0FC01208300960096009601D001C008955F
S1135CB0A7D9FC0120812260FC0120838EE490E0BE
S1135CC02D813E81232F330F330BFC0120830000F1
S1135CD0009601D001C0089589819A812FEF3FEF8A
